:020000040800F2
:10000000D00A002001010008A52E0008A72E000834
:10001000AB2E0008AF2E0008B32E00080000000031
:10002000000000000000000000000000B72E0008E3
:10003000B92E000800000000BB2E0008BD2E0008ED
:100040001B0100081B0100081B010008C32E00084B
:100050001B0100081B010008BF2E00081B0100083F
:100060001B0100081B0100081B0100081B01000800
:100070001B0100081B0100081B0100081B010008F0
:100080001B0100081B0100081B0100081B010008E0
:10009000113600081B0100081B0100081B010008A5
:1000A0001B010008C52E00081B0100081B010008E9
:1000B000C72E00081B0100086B3900081B0100084F
:1000C0001B0100081B0100081B0100081B010008A0
:1000D0001B0100081B0100081B0100081B01000890
:1000E000C12E00081B0100081B010008DFF80CD01E
:1000F00006F050FE00480047B92D0008D00A002045
:100100000648804706480047FEE7FEE7FEE7FEE7B1
:10011000FEE7FEE7FEE7FEE7FEE7FEE70302000874
:10012000ED0000080CB50020019000906C480068BC
:1001300040F480306A49086000BF6948006800F4F4
:10014000003000900198401C0190009818B9019867
:10015000B0F5A06FF1D16248006800F4003010B132
:100160000120009001E0002000900098012843D178
:100170005C48006840F010005A4908600846006872
:1001800020F0030008600846006840F002000860A4
:1001900053484068524948600846406848600846ED
:1001A000406840F4806048600846406820F47C1055
:1001B00048600846406840F4E81048600846006817
:1001C00040F08070086000BF4548006800F0007093
:1001D0000028F9D04248406820F0030040494860B8
:1001E0000846406840F00200486000BF3C48406854
:1001F00000F00C000828F9D10CBD10B5FFF792FFF4
:1002000010BD10B53648006840F001003449086060
:10021000084640683449084031494860084600684B
:10022000324908402E4908600846006820F48020C2
:1002300008600846406820F4FE0048604FF41F0044
:100240008860FFF7DAFF4FF000602949086010BDB1
:1002500010B5002100200022214B5B6803F00C0147
:1002600021B1042906D0082928D107E0214B224CCE
:10027000236027E01F4B204C236023E0184B5B6872
:1002800003F47010164B5B6803F48032022303EB17
:10029000904022B9194B4343174C23600DE0104B9B
:1002A0005B6803F4003323B1144B4343124C2360C7
:1002B00003E0104B4343104C236003E00D4B0E4C06
:1002C000236000BF00BF064B5B68C3F303130C4CF5
:1002D000E15C094B1B68CB40074C236010BD00005C
:1002E00000100240002002400000FFF8FFFFF6FE71
:1002F00008ED00E000127A000000002000093D0037
:100300000400002031490143314A1160704770B543
:10031000002100230F22C47804B32D4C246804F478
:10032000E064C4F5E064210AC1F10403CA404478E2
:1003300004FA03F18478144021430901254C06781E
:10034000A155047804F01F050124AC4005786D1117
:10035000AD0005F1E025C5F8004109E0047804F09E
:100360001F050124AC401C4D0678761145F8264047
:1003700070BD1A4A0A400243154B1B1F1A60704792
:1003800039B1134A121D12680243114B1B1D1A602A
:1003900006E00F4A121D126882430D4B1B1D1A60A6
:1003A0007047042808D14FF0E021096941F00401A9
:1003B0004FF0E022116107E04FF0E021096921F0E0
:1003C00004014FF0E0221161704700000000FA05BF
:1003D0000CED00E000E400E080E100E080FFFF1FA2
:1003E00010B50446FA48844208D10121401501F0B5
:1003F00077FB0021601501F073FB17E0F54884429C
:1004000008D10121001501F06BFB0021201501F03E
:1004100067FB0BE0F048844208D10121C80301F0DA
:100420005FFB00214FF4004001F05AFB10BD30B5D6
:100430000246002000235068E84C20400D790C68EB
:1004400044EA0524204350609068E54C2040D1E9FF
:1004500002542C434D7944EA450420439060D06A0D
:1004600020F470000C7C641EE4B2234340EA035085
:10047000D06230BD00210160017141718160C160B5
:1004800001210174704721B1826842F0010282604B
:1004900003E0826822F001028260704721B1826825
:1004A00042F48072826003E0826822F4807282608B
:1004B000704710B50023CBB21AB144681C434460A6
:1004C00002E044689C43446010BD816841F008012B
:1004D00081607047014600208A6802F008020AB174
:1004E000012000E000207047816841F00401816034
:1004F0007047014600208A6802F004020AB1012018
:1005000000E00020704721B1826842F4A0028260BE
:1005100003E0826822F4A002826070470146002056
:100520008A6802F480020AB1012000E000207047CE
:1005300010B50A4600210023416821F46041531E92
:1005400041EA4331416010BD21B1426842F400628A
:10055000426003E0426822F4006242607047F0B5F6
:1005600004460D4600200021092D11DDE068A5F1AB
:100570000A0606EB4607072606FA07F18843A5F1A7
:100580000A0606EB460603FA06F10843E0600CE0B3
:10059000206905EB4507072606FA07F1884305EBB6
:1005A000450603FA06F108432061072A0FDA606B5B
:1005B000561E06EB86071F2606FA07F18843561ECD
:1005C00006EB860605FA06F10843606322E00D2A71
:1005D0000FDA206BD61F06EB86071F2606FA07F1F7
:1005E0008843D61F06EB860605FA06F1084320630A
:1005F00010E0E06AA2F10D0606EB86071F2606FA58
:1006000007F18843A2F10D0606EB860605FA06F10E
:100610000843E062F0BD21B1826842F4801282603A
:1006200003E0826822F48012826070470146C86C41
:1006300080B2704766484C300068704721B142680C
:1006400042F48062426003E0426822F480624260C9
:10065000704721B1426842F48052426003E0426830
:1006600022F48052426070470A460021816821F4DA
:10067000E04111438160704721B1826842F4004239
:10068000826003E0826822F400428260704721B1F8
:10069000826842F40212826003E0826822F402124D
:1006A00082607047014600208A6802F400120AB195
:1006B000012000E000207047F0B5044615460020F8
:1006C00000220026092911DDE068A1F10A0707EBE5
:1006D000470C072707FA0CF29043A1F10A0707EB32
:1006E000470703FA07F21043E0600CE0206901EBD2
:1006F000410C072707FA0CF2904301EB410703FA7C
:1007000007F210432061A06BC0F30156EF1C06F105
:10071000010CA7EB0C0707EB870C1F2707FA0CF25D
:100720009043EF1C06F1010CA7EB0C0707EB8707C2
:1007300001FA07F21043A063F0BD10B50A4600218C
:100740000023816B21F44011531E41EA0351816360
:1007500010BD08B5002300930090009B0B4400934C
:10076000009B1A6008BD08B5024600200090009268
:1007700001F12800009B184400900098006880B2A6
:1007800008BD0A4600214168164B194011434160DB
:1007900070474162826270470A460021416821F039
:1007A0001F0111434160704740B109490831096890
:1007B00041F40001064A0832116007E0044908319B
:1007C000096821F40001024A0832116070470000F4
:1007D0000024014000280140003C0140FFFEF0FFE2
:1007E000FDF7F1FFFFFD3FFF0246002013680B40BD
:1007F0000BB1012000E000207047CA43026070473F
:1008000070B502460020002300240B125568CEB2BA
:1008100005EA060415681D4015B10CB1012000E081
:10082000002070BD00220A12D3430360704700000D
:1008300010B50446FE48844209D10121480601F062
:100840005CF900214FF0007001F057F908E0012138
:10085000880601F052F900214FF0806001F04DF957
:1008600010BD30B5024600200023146824F00204B5
:100870001460146844F00104146000E05B1C5468C8
:1008800004F001041CB94FF6FF74A342F6D154687A
:1008900004F001040CB900206CE08C79012C04D127
:1008A000146844F08004146003E0146824F08004A9
:1008B0001460CC79012C04D1146844F04004146015
:1008C00003E0146824F0400414600C7A012C04D175
:1008D000146844F02004146003E0146824F0200439
:1008E00014604C7A012C04D1146844F01004146094
:1008F00003E0146824F0100414608C7A012C04D1F5
:10090000146844F00804146003E0146824F0080438
:100910001460CC7A012C04D1146844F004041460EF
:1009200003E0146824F0040414608C78A407CD78E4
:1009300044EA05640D7944EA05444D7944EA0554D6
:100940000D886D1E2C43D461146824F001041460DA
:10095000002300E05B1C546804F001041CB14FF656
:10096000FF74A342F6D1546804F001040CB10020D6
:1009700000E0012030BD10B50021837A012202FA87
:1009800003F1AC4A126842F00102AA4B1A60A94A6C
:100990001C3212688A43A74B1C331A60027BCAB907
:1009A000A44A0C3212688A43A24B0C331A60428864
:1009B000C38842EA03439F4A4032847A42F8343083
:1009C0000288838842EA03439A4A4032847A02EBDF
:1009D000C4025360027B012A19D1964A0C32126874
:1009E0000A43944B0C331A604288038842EA03435B
:1009F000904A4032847A42F83430C288838842EA8E
:100A000003438C4A4032847A02EBC4025360C27AB8
:100A10003AB9884A121D12688A43864B1B1D1A6018
:100A200006E0844A121D12680A43824B1B1D1A609D
:100A3000028932B97F4A143212688A437D4B1433DB
:100A40001A600289012A06D17A4A143212680A43CE
:100A5000784B14331A60427B012A06D1754A1C3246
:100A600012680A43734B1C331A60724A126822F0F0
:100A70000102704B1A6010BD00218171C1710172B9
:100A800041728172C1728170C170032101710221B2
:100A900041710121018070476649096841F00101F7
:100AA000644A11601146096843F60E729143614A27
:100AB00011601146096841EA002111601146096878
:100AC00021F001011160704721B1026842F48032C7
:100AD000026003E0026822F4803202607047E1B1F4
:100AE000026842F0800202604FF4C272125842F46F
:100AF00080734FF4C27213504FF4CA72125842F40A
:100B000080734FF4CA7213504FF4D272125842F4E9
:100B100080734FF4D27213501BE0026822F08002FF
:100B200002604FF4C272125822F480734FF4C27202
:100B300013504FF4CA72125822F480734FF4CA72E1
:100B400013504FF4D272125822F480734FF4D272C1
:100B50001350704710B502460020936803F080637D
:100B6000B3F1806F00D110E0936803F00063B3F13C
:100B7000006F01D1012008E0936803F08053B3F1C6
:100B8000805F01D1022000E00420042879D002F522
:100B9000C07303EB00131B6803F0010402F5C0737C
:100BA00003EB00131C600B7A7BB94B7A0C8843EA89
:100BB000445302F5C07404EB00142468234302F587
:100BC000C07404EB0014236010E00B7A4C6843EA15
:100BD000C4034C7A234302F5C07404EB0014246868
:100BE000234302F5C07404EB001423608B7A03F0F6
:100BF0000F038B7202F5C07303EB00135B6823F0E5
:100C00000F0402F5C07303EB00135C6002F5C073C0
:100C100003EB00135B688C7A234302F5C07404EB8A
:100C2000001463608B7B1C064B7B44EA034403E0A7
:100C300000640040006600400B7B44EA0323CC7A4A
:100C4000234302F5C07404EB0014A3608B7C1C06E4
:100C50004B7C44EA03440B7C44EA0323CC7B2343D0
:100C600002F5C07404EB0014E36002F5C07303EBFB
:100C700000131B6843F0010402F5C07303EB00137B
:100C80001C6010BD10B50246002321B1012907D018
:100C900002290FD109E09068F94C00EA04030BE047
:100CA0009068F84C00EA040306E09068F64C00EA0D
:100CB000040301E0002300BF00BFF44C181BA34253
:100CC00016D007DC83B16FF08060184470B1022841
:100CD00018D111E0B0F5007F10D0ED4C204448B1A0
:100CE000B0F5003F0ED10BE002230DE000230BE036
:100CF000002309E0002307E0012305E0012303E0CE
:100D0000012301E0002300BF00BFD8B210BD21B114
:100D1000012907D002290FD109E0826842F0800240
:100D200082600AE0826842F40042826005E08268E4
:100D300042F40002826000E000BF00BF704710B5BF
:100D400000F5D87303EB01131B6803F0040313725F
:100D5000137A53B900F5D87303EB01131B6840F203
:100D6000FF7404EA5353136009E000F5D87303EBF2
:100D700001131B686FF0604404EAD303536000F56D
:100D8000D87303EB01131B6803F00203537200F5E1
:100D9000D87303EB01135B6803F00F03937200F544
:100DA000D87303EB01135B681B0AD37400F5D87387
:100DB00003EB01139B68D37200F5D87303EB0113A7
:100DC0009B681C0A147300F5D87303EB01139B682E
:100DD0001C0C547300F5D87303EB01139B681B0EB6
:100DE000937300F5D87303EB0113DB68D37300F53D
:100DF000D87303EB0113DB681C0A147400F5D87375
:100E000003EB0113DB681C0C547400F5D87303EB7F
:100E10000113DB681B0E937421B9C36843F02003F0
:100E2000C36003E0036943F02003036110BD21B9EF
:100E3000C26842F02002C26003E0026942F0200270
:100E4000026170470246002019B9D36803F003001D
:100E500006E0012903D1136903F0030000E000203C
:100E6000704710B502460B4600204FF6FF71BBB924
:100E7000146824F0020444F00104146000E0491EE8
:100E8000546804F00304012C01D00029F7D1546800
:100E900004F00304012C01D0002032E0012030E0F6
:100EA000012B13D1146824F00304146000E0491EE0
:100EB000546804F003040CB10029F8D1546804F01C
:100EC00003040CB100201CE001201AE0022B17D112
:100ED000146824F0010444F00204146000E0491E88
:100EE000546804F00304022C01D00029F7D154689F
:100EF00004F00304022C01D0002002E0012000E0F5
:100F0000002010BD014600200A6822F0010242F0D4
:100F100002020A604A6802F00302022A00D101209C
:100F2000704701464FF6FF7200200B6823F0020362
:100F30000B6000E0521E4B6803F00203022B01D14C
:100F4000002AF7D14B6803F00203022B00D00120E6
:100F50007047014600208A6902F070007047014620
:100F600000208A69100E7047014600208A69C2F38A
:100F7000074070471AB143690B43436102E043697C
:100F80008B434361704710B50246002001F47003A3
:100F900043B19369C1F3130423400BB101202DE049
:100FA00000202BE001F0807343B15368C1F31304B8
:100FB00023400BB1012021E000201FE001F000637D
:100FC00043B19368C1F3130423400BB1012015E032
:100FD000002013E001F0007343B1D368C1F31304A0
:100FE00023400BB1012009E0002007E01369C1F3A1
:100FF000130423400BB1012000E0002010BD0022AB
:10100000244B994202D10023836111E0C1F3130202
:1010100001F000730BB1C2600AE001F080630BB114
:10102000026105E001F000630BB1826000E0426004
:1010300070470246002002EA01030BB1012000E0E4
:101040000020704770B504460D46002660692840B0
:10105000002872D0B5F5807F69D01DDC082D42D004
:1010600006DC012D2DD0022D31D0042D7FD134E0AE
:10107000102D3ED0202D42D0402D78D145E00000EB
:101080000300000400030008000003100001000832
:101090000001FFF77000F030B5F5004F61D009DCBA
:1010A000B5F5007F4AD0B5F5806F4DD0B5F5006F2E
:1010B0005DD150E0B5F5803F2DD0B5F5003F56D15C
:1010C0002FE0A0685549FFF7B4FF064651E0E068FD
:1010D0000321FFF7AEFF06464BE0E0680821FFF76B
:1010E000A8FF064645E0E0681021FFF7A2FF06468C
:1010F0003FE020690321FFF79CFF064639E02069A5
:101100000821FFF796FF064633E020691021FFF71C
:1011100090FF06462DE060680821FFF78AFF06462B
:1011200027E060681021FFF784FF064621E0A069F0
:101130000121FFF77EFF06461BE01BE0A0690221AC
:10114000FFF777FF064614E0A0690421FFF771FF5F
:1011500006460EE00BE0A0697021FFF76AFF064625
:1011600007E060680421FFF764FF064601E00026FF
:1011700000BF00E00026304670BDB1F5007F3AD0D8
:101180000FDC202928D006DC01291CD004291DD021
:10119000082940D11DE0402921D0B1F5807F3AD106
:1011A00026E0B1F5004F31D006DCB1F5806F25D0D7
:1011B000B1F5006F2FD124E0B1F5803F12D0B1F529
:1011C000003F28D111E0154A826025E00822C26064
:1011D00022E01022C2601FE0082202611CE01022FF
:1011E000026119E00822426016E01022426013E01A
:1011F0000422426010E0042242600DE004224260BA
:101200000AE0002282610422426005E0002282613D
:101210000422426000E000BF00BF704701010100EE
:1012200001684FF6FE7211400160002101604160CB
:101230008160C1608D49884208D18C49083949686C
:1012400041F00F01894A083A51608AE08749143118
:10125000884208D185490839496841F0F001834A3C
:10126000083A51607DE081492831884208D17F49A0
:101270000839496841F470617C4A083A516070E06D
:101280007A493C31884208D178490839496841F4A3
:101290007041764A083A516063E07449503188429F
:1012A00008D172490839496841F470216F4A083AF7
:1012B000516056E06D496431884208D16B49083964
:1012C000496841F47001694A083A516049E0674948
:1012D0007831884208D165490839496841F0706120
:1012E000624A083A51603CE06149884206D1011FD8
:1012F000096841F00F01021F116032E05C491431AE
:10130000884208D15A49091F096841F0F001584A3A
:10131000121F116025E056492831884208D15449EE
:10132000091F096841F47061514A121F116018E0E9
:101330004F493C31884208D14D49091F096841F4A1
:1013400070414B4A121F11600BE0494950318842ED
:1013500007D14749091F096841F47021444A121F07
:101360001160704710B50022026847F6F0739A4387
:101370000C6A8B6823430C6923434C6923438C69B3
:101380002343CC6923434C6A23438C6A23431A4387
:101390000260CB6843600B6883604B68C36010BD1C
:1013A0000021016041608160C16001614161816132
:1013B000C161016241628162704721B1026842F0FD
:1013C0000102026004E002684FF6FE731A400260F8
:1013D00070471AB103680B43036002E003688B4354
:1013E00003607047416070470146486880B27047AB
:1013F00001460020002201F080531BB11C4B083B2A
:101400001A6802E0194B083B1A6802EA01030BB1A3
:10141000012000E00020704700F0805119B114490C
:10142000091F086002E01149083948607047014609
:101430000020002201F080531BB10D4B083B1A68BD
:1014400002E00A4B083B1A6802EA01030BB10120D3
:1014500000E00020704700F0805119B10449091FD5
:10146000086002E0014908394860704708000240FE
:101470000804024010B50446CC48844208D101213A
:10148000042000F02DFB0021042000F029FB46E0A1
:10149000C748844208D10121082000F021FB002127
:1014A000082000F01DFB3AE0C248844208D1012127
:1014B000102000F015FB0021102000F011FB2EE0A1
:1014C000BD48844208D10121202000F009FB002101
:1014D000202000F005FB22E0B848844208D1012119
:1014E000402000F0FDFA0021402000F0F9FA16E05B
:1014F000B348844208D10121802000F0F1FA002194
:10150000802000F0EDFA0AE0AE48844207D10121C4
:10151000801500F0E5FA0021A01500F0E1FA10BDF9
:1015200010B50121084600F0DBFA0021012000F08F
:10153000D7FA10BD2DE9F041024600250026002013
:1015400000230024002791F803C00CF00F0591F848
:1015500003C00CF0100CBCF1000F03D091F802C0D6
:101560004CEA050591F800C0BCF1000F31D01468B9
:1015700000202BE04FF0010C0CFA00F3B1F800C092
:101580000CEA03069E4220D183004FF00F0C0CFAA8
:1015900003F7BC4305FA03FC4CEA040491F803C0CA
:1015A000BCF1280F06D14FF0010C0CFA00FCC2F878
:1015B00014C00AE091F803C0BCF1480F05D14FF008
:1015C000010C0CFA00FCC2F810C0401C0828D1D352
:1015D0001460B1F800C0BCF1FF0F34DD5468002086
:1015E0002EE000F1080C4FF0010808FA0CF3B1F8F6
:1015F00000C00CEA03069E4221D183004FF00F0C7D
:101600000CFA03F7BC4305FA03FC4CEA040491F816
:1016100003C0BCF1280F05D100F1080C08FA0CF842
:10162000C2F8148091F803C0BCF1480F07D100F153
:10163000080C4FF0010808FA0CF8C2F81080401CA2
:101640000828CED35460BDE8F0814FF6FF710180C9
:10165000022181700421C170704702460020936806
:101660000B400BB1012000E0002070470146886864
:1016700080B2704702460020D3680B400BB10120B6
:1016800000E0002070470146C86880B270470161E1
:101690007047416170470AB1016100E041617047E4
:1016A000C16070474FF480320A4382618161826178
:1016B00082698269704702460020434B18684FF6E2
:1016C0008073184040EA021008433F4B186070478F
:1016D0003E49C8617047F0B50A4600230024002146
:1016E000002500F00046B6F1004F02D1364EF169F8
:1016F00001E0354E7168C0F3034583B200F4401633
:10170000B6F5401F08D121F070612F4E766826F0A3
:1017100070662D4F7E6012E000F48016B6F5801FD3
:1017200006D1032606FA05F4A14341F0706106E0F4
:10173000460D360103FA06F6B14341F0706122B15D
:10174000460D360103FA06F6314300F00046B6F1C5
:10175000004F02D11C4EF16101E01B4E7160F0BDE3
:1017600030B500228B071C0F0F2303FA04F2164B2F
:1017700008338C1053F824309343134C08348D10E5
:1017800044F8253023468C1053F824308C07240F5E
:1017900000FA04F423430C4C08348D1044F825302F
:1017A00030BD0A49DC310860704700000008014084
:1017B000000C0140001001400014014000180140DD
:1017C000001C0140002001400000014000002042B8
:1017D000DF48006840F00100DD49086008464068C5
:1017E000DC490840DA49486008460068DA490840A0
:1017F000D74908600846006820F480200860084641
:10180000406820F4FE0048604FF41F008860704775
:10181000CF49096821F48031CD4A11601146096829
:1018200021F480211160B0F5803F03D0B0F5802F06
:101830000ED106E0C649096841F48031C44A1160FE
:1018400007E0C349096841F4A021C14A116000E0E2
:1018500000BF00BF704710B50146002200230020E2
:101860004A11012A02D1BA4C236806E0022A02D1A9
:10187000B74C236A01E0B64C636A01F01F020124F1
:1018800094401C400CB1012000E0002010BD38B590
:10189000002000900024002500BF3120FFF7DBFF6F
:1018A00005460098401C00900098B0F5A06F01D04C
:1018B000002DF2D03120FFF7CEFF08B1012400E067
:1018C0000024204638BD01460020A14A106820F0BF
:1018D000F80040EAC10010607047A04908607047F6
:1018E000024600209A4B586820F47C1042EA01031B
:1018F0001843974B586070479849086670470146EF
:101900000020934A506820F003000843506070475D
:101910008F48406800F00C007047014600208C4A58
:10192000506820F0F00008435060704701460020E6
:10193000874A506820F4E0600843506070470146D1
:101940000020834A506820F4605040EAC100506093
:10195000704729B17E4A527A02437D4B5A7204E0A5
:101960007B4A527A82437A4B5A7270477B49D8310C
:101970000860704701460020754A506820F44040D6
:101980000843506070470021714A20321170704A3C
:1019900082F82010012802D004280AD104E0012195
:1019A0006B4A2032117005E00521694A203211701E
:1019B00000E000BF00BF7047694908607047644994
:1019C000096A0143624A11627047654944390860F7
:1019D000704730B500210022002400235C4D6D6863
:1019E00005F00C0121B1042905D0082923D105E017
:1019F0005C4D056022E05B4D05601FE0544D6D6855
:101A000005F47012524D6D6805F48034022505EB23
:101A100092421CB9544D554305600BE04C4D6D6826
:101A200005F400351DB1504D5543056002E04D4DA4
:101A30005543056002E04B4D056000BF00BF444DBB
:101A40006D6805F0F0010909484D6B5C0568DD40E3
:101A500045603F4D6D6805F4E061090A434D6B5CDC
:101A60004568DD4085603A4D6D6805F46051C90AEE
:101A70003E4D6B5C4568DD40C560354D6D6805F4D5
:101A80004041890B3A4D6B5CC568B5FBF3F50561C8
:101A900030BD29B12E4A526902432D4B5A6104E0F0
:101AA0002B4A526982432A4B5A61704729B1284A0E
:101AB00092690243264B9A6104E0254A9269824367
:101AC000234B9A61704729B1214AD2690243204BC6
:101AD000DA6104E01E4AD26982431D4BDA61704725
:101AE00029B11B4AD2680243194BDA6004E0184A54
:101AF000D2688243164BDA60704729B1144A1269E2
:101B00000243134B1A6104E0114A12698243104BDD
:101B10001A61704712494039086070470F49C8641C
:101B200070470B49C87170470948406A40F080709F
:101B300007494862704701460020054A92680A40FA
:101B40000AB1012000E00020704701498872704707
:101B5000001002400000FFF8FFFFF6FE00004242C6
:101B60008004424200127A0000093D001400002067
:101B70002400002010B50446FE48844208D101210B
:101B8000C014FFF7ADFF0021E014FFF7A9FFC4E088
:101B9000B4F1804F08D101210846FFF7AEFF0021C4
:101BA0000120FFF7AAFFB8E0F348844208D10121E1
:101BB0000220FFF7A2FF00210220FFF79EFFACE00A
:101BC000EE48844208D101210420FFF796FF00214E
:101BD0000420FFF792FFA0E0E948844208D10121E8
:101BE0000820FFF78AFF00210820FFF786FF94E016
:101BF000E448844208D101211020FFF77EFF002134
:101C00001020FFF77AFF88E0DF48844208D10121E5
:101C10002020FFF772FF00212020FFF76EFF7CE0FD
:101C2000DA48844208D101214014FFF759FF00210E
:101C30006014FFF755FF70E0D548844209D10121B7
:101C4000C804FFF74DFF00214FF40020FFF748FFC5
:101C500063E0D048844209D101210805FFF740FF25
:101C600000214FF48010FFF73BFF56E0CA48844242
:101C700009D101214805FFF733FF00214FF400107F
:101C8000FFF72EFF49E0C548844208D101214020DA
:101C9000FFF733FF00214020FFF72FFF3DE0C04852
:101CA000844208D101218020FFF727FF00218020F6
:101CB000FFF723FF31E0BB48844208D101218015A2
:101CC000FFF71BFF0021A015FFF717FF25E0B6481F
:101CD000844209D101210804FFF702FF00214FF4DB
:101CE0008030FFF7FDFE18E0B048844209D10121A1
:101CF0004804FFF7F5FE00214FF40030FFF7F0FE37
:101D00000BE0AB48844208D101218804FFF7E8FECC
:101D100000214FF48020FFF7E3FE10BD002202886F
:101D2000944B98420ED0994B98420BD0B0F1804F13
:101D300008D0914B984205D0904B984202D0904BDE
:101D4000984204D14FF68F731A404B881A438D4B3B
:101D5000984207D08C4B984204D04FF6FF431A406C
:101D6000CB881A4302808B8883850B880385814B3F
:101D700098420BD0854B984208D08B4B984205D0A7
:101D80008A4B984202D08A4B984201D10B7A038643
:101D900001238382704770B5002400220023058C44
:101DA0004FF6FE7635400584028C8388048B4FF60F
:101DB0008F752C40B51E2C400D882C43751E2A4073
:101DC0000D892A434D882A436A4DA8420BD06F4D96
:101DD000A84208D0744DA84205D0744DA84202D044
:101DE000734DA84213D14FF6F7752A404D892A4307
:101DF0004FF6FB752A408D882A434FF6FF652B402E
:101E00004FF6FF552B408D892B43CD892B43838083
:101E10000483CD888586028470BD70B500240022BD
:101E20000023058C4FF6EF7635400584028C8388BD
:101E3000048B48F6FF752C404FF6FF452C400D886B
:101E40004FF6FF7606EA05252C434FF6DF752A404C
:101E50000D8906EA05152A434D8806EA05152A4329
:101E6000444DA84202D0494DA8421DD14FF67F757E
:101E70002A404D894FF6FF7606EA05152A434FF6AC
:101E8000BF752A408D8806EA05152A434FF6FF35AF
:101E90002B404FF2FF752B408D8906EA85052B43B9
:101EA000CD8906EA85052B4383800483CD88058789
:101EB000028470BD70B5002400220023058C4FF60B
:101EC000FF6635400584028C8388848B4FF68F75BE
:101ED0002C404FF6FC752C400D882C434FF6FF55D7
:101EE0002A400D894FF6FF7606EA05252A434D88DC
:101EF00006EA05252A431F4DA84202D0234DA842D9
:101F00001DD14FF2FF752A404D894FF6FF7606EA44
:101F100005252A434FF6FF352A408D8806EA052518
:101F20002A434EF6FF752B404DF6FF752B408D89E9
:101F300006EA05152B43CD8906EA05152B43838058
:101F40008483CD888587028470BD70B5002200230C
:101F50000024058C4EF6FF7635400584038C84887A
:101F6000828B48F6FF752A404FF6FF452A400D88C0
:101F700020E00000002C0140000400400008004068
:101F8000000C0040001000400014004000340140EC
:101F9000004C014000500140005401400018004036
:101FA000001C00400020004000400140004401406F
:101FB000004801404FF6FF7606EA05252A434DF614
:101FC000FF752B400D8906EA05352B434D8806EA3F
:101FD00005352B43FA4DA84202D0FA4DA84208D14C
:101FE0004BF6FF752C408D894FF6FF7606EA851576
:101FF0002C4384808283CD88A0F84050038470BD38
:10200000828B4FF2FF331A408283828B4FF6FF732D
:1020100003EA01231A4382837047F0B50C46154644
:10202000002200210026078C4EF6FF7C07EA0C07F1
:102030000784828B018C4FF6FF7707EA043640F65F
:10204000FF473A404FF6FF7707EA05273A434FF636
:10205000FF7707EA03373A43D94FB8420ED0D94F3A
:10206000B8420BD0B0F1804F08D0D74FB84205D05E
:10207000D64FB84202D0D64FB84206D14DF6FF77C0
:10208000394046F48057394305E047F6FF57394059
:1020900044F48057394382830184F0BD828B4FF62C
:1020A000F3731A408283828B0A4382837047F0B5B0
:1020B0000C461546002200210026078C4FF6FF6CC7
:1020C00007EA0C070784828B018C4FF6FF7707EA3B
:1020D00004264FF60C773A404FF6FF7707EA0317CE
:1020E0002F433A43B64FB8420ED0B64FB8420BD04A
:1020F000B0F1804F08D0B44FB84205D0B34FB842CA
:1021000002D0B34FB84206D14FF6FF57394046F4DC
:102110008077394305E04FF2FF57394044F4807728
:10212000394382830184F0BD028B4FF2FF331A40A2
:102130000283028B4FF6FF7303EA01231A430283E3
:102140007047F0B50C461546002200210026078C8A
:102150004FF6EF7C07EA0C070784028B018C4FF6E1
:10216000FF7707EA041640F6FF473A404FF6FF773D
:1021700007EA03373A434FF6FF7707EA05273A4362
:102180008F4FB8420ED08F4FB8420BD0B0F1804F76
:1021900008D08D4FB84205D08C4FB84202D08C4F3A
:1021A000B84206D14FF6DF77394046F01007394381
:1021B00005E04FF65F77394044F01007394302835A
:1021C0000184F0BD028B4FF6F3731A400283028B39
:1021D0000A4302837047F0B50C46154600220021E1
:1021E000068C4FF6FE773E400684028B018C4FF63C
:1021F0000C7632407E1C06EA03162E433243704EA4
:10220000B0420ED06F4EB0420BD0B0F1804F08D02C
:102210006D4EB04205D06D4EB04202D06C4EB04211
:1022200006D14FF6FD76314044F00106314305E01A
:102230004FF6F576314044F00106314302830184C4
:10224000F0BD70B505460C465D4885420ED05D4830
:1022500085420BD0B5F1804F08D05B48854205D050
:102260005A48854202D05A48854200D100E000BF5A
:10227000208850B92389A28861882846FFF7ABFFE0
:10228000E1882846FFF79EFF25E0208804280AD130
:102290002389A28861882846FFF753FFE1882846F2
:1022A000FFF742FF17E0208808280AD12389A28877
:1022B00061882846FFF7FBFEE1882846FFF7EEFE1F
:1022C00009E02389A28861882846FFF7A6FEE188F5
:1022D0002846FFF795FE70BD2DE9F04105460C46F6
:1022E00000260127608808B9022600E00026A088A1
:1022F000012801D1022700E001272088A0B9238905
:10230000A28861882846FFF766FFE1882846FFF724
:1023100059FF23893A4631462846FFF712FFE188E4
:102320002846FFF701FF13E02389A2886188284629
:10233000FFF707FFE1882846FFF7F6FE23893A46B4
:1023400031462846FFF747FFE1882846FFF73AFF66
:10235000BDE8F0810A884B881A438B881A43CB88E2
:102360001A430B891A434B891A438B891A43A0F8E5
:10237000442070474FF6FF71818000210180C180A9
:102380004180017270470021018041808180C180BD
:10239000018141818181C18170470021018041809B
:1023A000012181800021C1800181704700210180CD
:1023B00041808180C180018141818181704700001D
:1023C000002C01400034014000040040000800409F
:1023D000000C004021B1028842F00102028004E0BA
:1023E00002884FF6FE731A400280704731B1B0F890
:1023F000442042F40042A0F8442005E0B0F8442014
:10240000C2F30E02A0F8442070471AB183890B432F
:10241000838102E083898B43838170478182704787
:1024200041EA0203A0F8483070471AB183890B4390
:10243000838102E083898B438381704701894FF652
:10244000F8721140018170470A46002101894FF658
:102450008F73194011430181704730B504460D4612
:1024600029462046FFF7F0FF208940F00700208131
:1024700030BD2DE9F04104460D4616461F46602D3D
:1024800006D13B46012231462046FFF75AFE05E0C1
:102490003B46012231462046FFF79DFE2946204655
:1024A000FFF7D2FF208940F007002081BDE8F081CE
:1024B00030B50C4600210189C9B24FF6FF7505EA17
:1024C0000325154325432943018130BD2DE9F04102
:1024D00005460E4617469846002443463A4631467E
:1024E0002846FFF7E5FF2C894FF6F870044044F0CA
:1024F00007044FF68F70044044F070042C81BDE84F
:10250000F081F0B504460D4616461F463B4632465E
:1025100029462046FFF7CCFF208940F480402081E7
:10252000F0BD0185828270470A46002101884FF67E
:102530008F731940114301807047F0B50C46154662
:102540001E460021002200230189028B038C4FF6D6
:10255000F877394021434FF6FC473A4040F20117E3
:102560003A434FF6DD773B404FF6FF7707EA061711
:102570002F433B43018102830384F0BD0A460021BF
:10258000018B4FF68F7319401143018370470A4640
:102590000021018B48F6FF7319404FF6FF7303EAE1
:1025A00002231943018370470A460021818B4FF6AD
:1025B0008F7319401143818370470A460021818B34
:1025C00048F6FF7319404FF6FF7303EA02231943DD
:1025D0008183704721B1028842F08002028004E0CA
:1025E00002884FF67F731A400280704721B18288BB
:1025F00042F00402828004E082884FF6FB731A40A6
:102600008280704721B1828842F00802828004E013
:1026100082884FF6F7731A408280704721B1828812
:1026200042F00102828004E082884FF6FE731A4075
:10263000828070470A460021018B4FF6F7731940DC
:102640001143018370470A460021018B4FF2FF734B
:1026500019404FF6FF7303EA0223194301837047C1
:102660000A460021818B4FF6F7731940114381838D
:1026700070470A460021818B4FF2FF7319404FF6D5
:10268000FF7303EA02231943818370470A4600213E
:10269000018B4FF6FB7319401143018370470A46C3
:1026A0000021018B4FF6FF3319404FF6FF7303EA09
:1026B00002231943018370470A460021818B4FF69C
:1026C000FB7319401143818370470A460021818BB7
:1026D0004FF6FF3319404FF6FF7303EA0223194305
:1026E000818370470A460021018B4FF67F731940A2
:1026F0001143018370470A460021018BC1F30E018B
:102700004FF6FF7303EA02231943018370470A4619
:102710000021818B4FF67F731940114381837047ED
:102720000A460021818BC1F30E014FF6FF7303EAC5
:1027300002231943818370470A460021018C4FF61A
:10274000FD7319401143018470470A460021018C32
:102750004FF6F77319401143018470470A46002170
:10276000018C4FF6DF7319404FF6FF7303EA021333
:102770001943018470470A460021018C4FF67F738C
:1027800019404FF6FF7303EA02131943018470479F
:102790000A460021018C4FF6FF5319404FF6FF7394
:1027A00003EA02231943018470470A460021018C81
:1027B0004FF2FF7319404FF6FF7303EA02231943E8
:1027C000018470470A460021018C4DF6FF731940C1
:1027D0004FF6FF7303EA023319430184704730B5A3
:1027E000002301248C40A3B2048C9C430484048CF9
:1027F00002FA01F5ADB22C43048430BD30B500239C
:1028000004248C40A3B2048C9C430484048C02FAFC
:1028100001F5ADB22C43048430BD70B503460020F1
:1028200000241846183001258D40ACB21D8CA543FC
:102830001D8409B1082909D100EB6100056825F064
:10284000700505600568154305600EE00D1FC5F3B2
:102850004E052844056825F4E045056005684FF6F7
:10286000FF7606EA02263543056070BD21B1028875
:1028700042F00202028004E002884FF6FD731A4023
:102880000280704721B1028842F00402028004E015
:1028900002884FF6FB731A400280704721B182888C
:1028A00042F08002828004E082884FF67F731A40F3
:1028B0008280704702884FF6F7731A4002800288C0
:1028C0000A430280704782884FF68F731A408280D5
:1028D00082880A438280704702894FF6F8731A4053
:1028E000028102890A430281704702894FF67F7391
:1028F0001A40028102890A4302817047818470472D
:10290000818570478186704701877047818770474E
:10291000A0F84010704702884FF6FF431A4002802B
:1029200002880A43028070470146888E704701463C
:10293000088F70470146888F70470146B1F8400004
:1029400070470146888C70470146088D70470246E3
:102950000020138A0B400BB1012000E000207047DB
:10296000CA430282704730B502460020002300248B
:10297000158A05EA0103958905EA010413B10CB132
:10298000012000E0002030BDCA43028270470000F1
:1029900010B50446FB48844209D101218803FFF7A2
:1029A0009FF800214FF48040FFF79AF832E0F64894
:1029B000844209D101214804FFF79FF800214FF418
:1029C0000030FFF79AF825E0F048844209D1012150
:1029D0008804FFF792F800214FF48020FFF78DF86C
:1029E00018E0EB48844209D10121C804FFF785F8BB
:1029F00000214FF40020FFF780F80BE0E548844207
:102A000008D101210805FFF778F800214FF4801064
:102A1000FFF773F810BD2DE9F04786B005460E4666
:102A20000024A24600BFA1460027B08900B100BF24
:102A30002F462C8A4CF6FF700440F08804432C8209
:102A4000AC894EF6F3100440B0883189084371898F
:102A500008430443AC81AC8A4FF6FF400440B08980
:102A60000443AC8201A8FEF7B4FFC648874202D1F6
:102A7000DDF810A001E0DDF80CA0A88900F400400A
:102A800040B10AEBCA0000EB0A1031684900B0FB04
:102A9000F1F807E00AEBCA0000EB0A103168890080
:102AA000B0FBF1F86420B8FBF0F0040120096421C8
:102AB00001FB1089A88900F4004040B1322000EBEE
:102AC000C900B0FBF1F000F00700044308E0322039
:102AD00000EB09106421B0FBF1F000F00F0004439B
:102AE0002C8106B0BDE8F0874FF41651016000213B
:102AF0008180C18001810C21418100218181704749
:102B000010B502460020108A4FF2FF0318400B88D0
:102B10004C8823438C882343CC882343184310825A
:102B200010BD0021018041808180C180704721B1AA
:102B3000828942F40052828104E082894DF6FF735B
:102B40001A4082817047F0B5034600240026002514
:102B5000002040F66A17B94200D100BF1846C1F301
:102B6000421401F01F06012707FA06F5012C01D1D6
:102B70000C3004E0022C01D1103000E014301AB106
:102B800007682F43076002E00768AF430760F0BDA6
:102B90001AB1838A0B43838202E0838A8B43838248
:102BA0007047028A4FF6F0731A400282028A0A4383
:102BB0000282704782894FF2FF731A4082818289B4
:102BC0000A438281704721B1828942F002028281E8
:102BD00004E082894FF6FD731A4082817047028AB1
:102BE0004FF6DF731A400282028A0A43028270475C
:102BF00021B1028A42F48042028204E0028A4BF64A
:102C0000FF731A4002827047C1F308028280704746
:102C100001468888C0F308007047818941F00101AE
:102C200081817047028BD2B20283028B42EA012279
:102C300002837047028B02F47F420283028B0A43B5
:102C40000283704721B1828A42F02002828204E02E
:102C5000828A4FF6DF731A408282704721B1828ADE
:102C600042F01002828204E0828A4FF6EF731A402B
:102C70008282704721B1828A42F00802828204E097
:102C8000828A4FF6F7731A408282704721B1828997
:102C900042F40042828103E08289C2F30E02828103
:102CA000704721B1828A42F40062828204E0828A03
:102CB0004FF2FF731A4082827047828A4FF6FB738D
:102CC0001A408282828A0A438282704721B1828AB4
:102CD00042F00202828204E0828A4FF6FD731A40BB
:102CE0008282704702460020B1F5007F00D100BF0C
:102CF00013880B400BB1012000E00020704701F465
:102D00000072B2F5007F00D100BFCA430280704755
:102D100070B50246002400230025002040F66A1604
:102D2000B14200D100BFC1F3421501F01F030126DB
:102D300006FA03F3012D02D19689334006E0022DF5
:102D400002D1168A334001E0968A33400C120126E4
:102D500006FA04F41688344013B10CB1012000E0E7
:102D6000002070BD10B50022002340F66A14A14275
:102D700000D100BF0A1201249440A3B2DC430480B6
:102D800010BD0000003801400044004000480040F1
:102D9000004C00400050004070B504460D46E1B2C2
:102DA0002B48FFF731FF00BF80212948FFF79AFF2A
:102DB0000028F9D0204670BD1CB526A103C9CDE975
:102DC000000100F076FB00F0C9FD03F07CFB4FF43E
:102DD000FA7000F001FD00F0C3F838E01F48006809
:102DE00001280ED1C0211E48FEF751FCC82000F07A
:102DF000F3FCC0211A48FEF74CFCC82000F0ECFCA4
:102E00000FE0C0211648FEF742FC4FF4167000F0A8
:102E1000E3FCC0211248FEF73CFC4FF4167000F0B2
:102E2000DBFC00F0E8F80F4801680FA003F0F0FFAA
:102E30001048016810A003F0EBFF1248016812A0CF
:102E400003F0E6FF1348016813A003F0E1FFC5E7B4
:102E50000038014002020303040405054C00002071
:102E6000000801403800002064617461303A256434
:102E70000A0000003C00002064617461313A25645E
:102E80000A0000004000002064617461323A256449
:102E90000A0000004400002064617461333A256434
:102EA0000A000000704700BFFEE700BFFEE700BF5A
:102EB000FEE700BFFEE770477047704770477047F6
:102EC0007047704770477047002106E02C2100BF13
:102ED0000A00A1F1010399B2FAD10200A0F10103A5
:102EE00098B2F3D1704730B504460025254605E079
:102EF0004FF47A70FFF7E8FF681E85B2002DF7D116
:102F000030BD10B50446052301222146CC48FDF70B
:102F100026FB0121CA48FDF7F6FA00BF0221C84886
:102F2000FDF762FC0028F9D0C548FDF77FFB10BD16
:102F30002DE9F04107460C460025002609E03846F9
:102F4000FFF7DFFF05444FF4FA60FFF7BDFF701C89
:102F5000C6B2A642F3DBB5FBF4F080B2BDE8F08167
:102F600010B5002428E00A210020FFF7E1FFB54951
:102F700009680844B34908600A210120FFF7D8FF17
:102F8000B14909680844B04908600A210220FFF7E6
:102F9000CFFFAE4909680844AC4908600A21032004
:102FA000FFF7C6FFAA4909680844A94908604FF419
:102FB000FA70FFF789FF641C0A2CD4DBA148006873
:102FC0000A2190FBF1F09F4908609F4800680A21A0
:102FD00090FBF1F09C4908609C4800680A2190FB36
:102FE000F1F09A4908609A4800680A2190FBF1F0D4
:102FF0009749086010BD70B50A210020FFF798FFBF
:1030000090490968401A8F490968C1F5805100FB51
:1030100001F4E01704EB105000138E4908600A21F8
:103020000120FFF785FF88490968401A8649096829
:10303000C1F5805100FB01F4E01704EB10500013C0
:10304000854908600A210220FFF772FF7F4909685D
:10305000401A7E490968C1F5805100FB01F4E01770
:1030600004EB105000137D4908600A210320FFF78C
:103070005FFF77490968401A75490968C1F58051B1
:1030800000FB01F4E01704EB1050001374490860D2
:103090007248006870490968401A4FF4FA71484351
:1030A0006E4909686C4A1268114490FBF1F5694851
:1030B00000686B490968401A4FF4FA714843654942
:1030C0000968674A1268114490FBF1F6A81965492E
:1030D000086070BD2DE9F04788B005460E461446DD
:1030E00099464FF0040A00208DF810008DF8110069
:1030F00008208DF81200082D0FD2DFE805F0040536
:10310000060708090A0B00BF00BF00BF00BF00BFD1
:1031100000BF00BF4AEA052A02E008B0BDE8F08718
:1031200000BF102E1BD2DFE806F008090A0B0C0DB9
:103130000E0F101112131415161700BF00BF00BF99
:1031400000BF00BF00BF00BF00BF00BF00BF00BF87
:1031500000BF00BF00BF00BF4AEA061A00E0DCE77C
:1031600000BFCDF808A041F28830844201DD04465A
:1031700003E03D48844200DA0446002C0ADA204687
:1031800003F078FC074600F0D8FACDE9000103F01F
:103190009BFC04B2200A8DF813008DF814404FEA0E
:1031A00019218DF815108DF8169055218DF81710EE
:1031B0008DF818108DF819108DF81A1002A92B48E7
:1031C000FDF7C8FC00BFA8E72DE9F05F0646894679
:1031D0009246274C274D22462B460020264903F0D5
:1031E0005AFB074603F070FC0FFA80FB33465A4641
:1031F00001210020FFF76EFF22462B4600201E49CA
:1032000003F049FB074603F05FFC0FFA80FB4B46D7
:103210005A4602210020FFF75DFF22462B46002080
:10322000154903F038FB074603F04EFC0FFA80FB0C
:1032300053465A4603210020FFF74CFFBDE8F09F9C
:1032400000240140280000202C0000203000002035
:1032500034000020380000203C0000204000002006
:10326000440000204800002078ECFFFF006400408C
:10327000CDCCCCCCCCCCEC3F0088B34000B585B0F5
:103280004FF48060ADF8000004208DF803000320A7
:103290008DF802006946F248FEF74CF94FF40070D1
:1032A000ADF8000018208DF803006946EC48FEF7E1
:1032B00041F9EC48FFF76CFB4FF4E130019000203E
:1032C000ADF80800ADF80A00ADF80C00ADF810003C
:1032D0000C20ADF80E0001A9E248FFF79CFB01218C
:1032E000E048FFF724FC05B000BD00B587B00F2013
:1032F000ADF8040000208DF8070001A9D848FEF7BA
:1033000019F9D948FDF76CF8002002908DF80C00EF
:103310008DF80D004FF460200490002005900120EE
:103320008DF8180002A9D048FDF781F80121CE4898
:10333000FDF7A9F8CC48FDF7C8F800BFCA48FDF76B
:10334000C9F80028FAD1C848FDF7CEF800BFC64832
:10335000FDF7CFF80028FAD107B000BD00B589B05D
:103360004FF40060ADF8040048208DF8070001A973
:10337000BB48FEF7DFF84FF48050ADF8040018208A
:103380008DF8070003208DF8060001A9B448FEF768
:10339000D1F8B648FDF74CFA06A8FDF76DFB002002
:1033A0008DF81E008DF81F008DF820008DF821008B
:1033B0008DF822008DF823008DF81A008DF81B007F
:1033C00002208DF81C0001208DF81D000620ADF8AC
:1033D000180006A9A548FDF744FA00208DF8120050
:1033E0008DF8130001208DF814000020ADF80800BE
:1033F000ADF80A00ADF80C00ADF80E00ADF8100005
:1034000001208DF8150002A8FDF7B5FA012202216E
:103410009648FDF7AFFD09B000BD08B54FF4C06098
:10342000FCF770FF14208DF8000001208DF80100DA
:103430008DF802008DF803006846FCF768FF08BDB0
:1034400008B510208DF80300C020ADF8000003205F
:103450008DF8020069468248FEF76CF8C02180486A
:10346000FEF715F908BD10B501210420FEF71EFB7B
:1034700001210820FEF71AFB01211020FEF716FBA0
:1034800001212020FEF712FB01218803FEF70EFB2D
:1034900001214802FEF70AFB01210846FEF713FB53
:1034A00001210220FEF70FFB01214806FEF70BFB6E
:1034B00010BD10B5FFF7D7FFFFF7C2FFFFF7ADFF55
:1034C000FFF74CFFFFF711FFFFF7D8FE10BD704765
:1034D00000B58BB06648FDF7A3FE002002900120E6
:1034E00003900020049005904FF4807006908000B7
:1034F0000790202008900002099000200A90694659
:103500005B48FDF72FFF01215948FDF756FF0220C8
:10351000FDF782FF0BB000BD30B589B00025002457
:103520004FF42850ADF8040018208DF80700032050
:103530008DF8060001A94A48FDF7FCFF4D480068D8
:1035400044F2A241B0FBF1F0451E681E00EB800082
:103550000A21B0FBF1F084B20020ADF81800ADF8FC
:103560001A00A8B2ADF81C000020ADF81E0006A994
:103570004148FEF7D3FB7020ADF808000120ADF8FC
:103580000A00ADF80E400220ADF8100002A93A483A
:10359000FEF701FC08213848FFF74CF801213648B6
:1035A000FFF718F801213448FEF714FF01213248D3
:1035B000FEF71CFF09B030BD70B586B0044600268A
:1035C00040F20240019005208DF80E0000208DF899
:1035D0000D008DF80C0020788DF80F0061788DF8C3
:1035E0001010A1788DF81110E1788DF81210217962
:1035F0008DF8131001A91D48FDF7ACFA054600BF70
:1036000029461A48FDF73EFB0128F9D006B070BDE7
:1036100010B588B0002001900290002402211348C8
:10362000FDF710FD40B102211048FDF7A6FD03AAE9
:1036300000210E48FDF783FB002406E00DF1170082
:10364000005D01A90855601CC4B2082CF6DB9DF88A
:103650000400012801D10949086008B010BD00002C
:10366000000801400038014000240140006400408F
:103670000800024000000020000400404C00002030
:103680002DE9F04F87B004460D4600223B4B204603
:10369000294603F000F9CDE90401CDE9024502987D
:1036A000019037490198A1EB500001900199CDE9B3
:1036B0000210DDE90223DDE9040103F0ECF88046A5
:1036C000DDE9022303F0E7F8064600222D4B03F064
:1036D000DFF88246DDE9022303F0DDF8CDE90201DF
:1036E000DDE9020107B0BDE8F08F2DE9F0410646A3
:1036F0000F4614461D4622462B463046394603F0F7
:1037000017FA03D220462946BDE8F08130463946F3
:10371000FAE72DE9F04106460F4614461D462246BB
:103720002B463046394603F003FA03D23046394679
:10373000BDE8F08120462946FAE770B504460D46FB
:10374000002213462046294603F0F2F902D2204611
:10375000294670BD85F000412046FAE770B5044661
:103760000D46002213462046294603F0E1F902D215
:103770000020054970BD00200449FBE70000E03F40
:10378000DF59375F0000F83F0000F03F0000F0BF56
:1037900000204FF0E02108617047002142F22832FA
:1037A00042434FF0E0235A6100229A611A4612699F
:1037B00042F001021A6100BF4FF0E022116901F4EA
:1037C0008032002AF8D04FF0E022126922F0010284
:1037D0004FF0E0231A61704710B5044605E0A4F5E8
:1037E000FA744FF4FA70FFF7D8FFB4F5FA7FF6D801
:1037F0002046FFF7D2FF10BD002100EBC0024FF0C2
:10380000E0235A6100229A611A46126942F00102CD
:103810001A6100BF4FF0E022116901F48032002AE2
:10382000F8D04FF0E022126922F001024FF0E023BD
:103830001A617047704700001FB501210420FEF790
:1038400042F901A8FEF796FD4FF47A70ADF8080032
:103850004720ADF804000020ADF80A00ADF80600DE
:103860008DF80C0001A94F48FEF758FA01221146C5
:103870004C48FEF7CAFD01214A48FFF771F80121C3
:103880004848FEF7A7FD1E208DF8000002208DF8A5
:1038900001008DF8020001208DF803006846FCF756
:1038A00036FD1FBD0EB501211020FEF70CF968464C
:1038B000FEF760FD4720ADF800004FF6FF70ADF851
:1038C00004000020ADF80600ADF802006946364855
:1038D000FEF724FA01213448FEF77CFE012132482C
:1038E000FEF778FD0EBD10B5304903C903F0ECF8C2
:1038F00010BD70B500242C48848C2D48006884428B
:103900000DDB2B490968601A03F0B4F80546274817
:103910000CC8284602F018FF244A03C213E02448CA
:10392000006884420FDA22490968611A4FF6FF7273
:10393000881803F09FF805461C480CC8284602F07A
:1039400003FF1A4A03C21A48046070BD00201649DA
:1039500088840021154A11605160704710B5FFF747
:10396000A1FF10BD13480068704710B512480068E9
:10397000401C114908600F480068401C0D49086050
:103980000D4800680D490968884205DB00200A4996
:10399000086001200A49086001210248FEF7E0FFA3
:1039A00010BD000000080040001000406000002032
:1039B00074000020700000207800002068000020C3
:1039C0006C00002038B50446FC4890F82400C0B1D3
:1039D00014B10220009001E000200090F74A126824
:1039E000D17BF64A526810786B46012202F0CEF87D
:1039F00010B14FF0FF3038BD9DF80010EF48417412
:103A000023E0EE48807A10B94FF0FF30F3E724B19D
:103A1000EA48407C08B10020EDE714B10120009095
:103A200001E000200090E54A1268D17BE34A526829
:103A300010786B46012202F0A9F810B14FF0FF3068
:103A4000D9E79DF80010DD4841740020D3E738B570
:103A500000241BE0D9480068C07AA04204D0D748AF
:103A60000068407DA04200D10EE0D4494968087842
:103A70006B460122214602F0D7F810B14FF0FF301B
:103A800038BD00BF00BF00BF601CC4B2CB48406857
:103A90000079A042DEDC0020F2E770B504460D4656
:103AA000C6480068C07AA04204D0C4480068407D7F
:103AB000A04202D14FF0FF3070BDC048406800798D
:103AC000A04202DC4FF0FF30F6E7BC4949680878B5
:103AD0002B460122214602F0A7F8EDE738B504464F
:103AE000B648807CA04201D1002038BD002C46D0D1
:103AF000B24A12681179B14A526810786B460122B5
:103B000002F092F810B14FF0FF30EEE79DF80000A0
:103B100020F020000090A94A12681179A74A526843
:103B200010786B46012202F031F810B14FF0FF30EF
:103B3000DBE70320FFF750FE022000909F4890F83B
:103B4000220020B19DF8000040F0800000909B48CA
:103B500090F8230020B19DF8000040F03000009064
:103B6000964A1268117D954A526810786B46012278
:103B700002F00CF8002851D04FF0FF30B5E78F4A23
:103B8000126811798D4A526810786B46012202F052
:103B90004BF810B14FF0FF30A7E78848807A00F06B
:103BA000010028B19DF8000040F02000009004E0E2
:103BB0009DF8000020F020000090804A12681179E2
:103BC0007E4A526810786B46012201F0DFFF10B187
:103BD0004FF0FF3089E70320FFF7FEFD774890F8AC
:103BE000220010B18020009001E000200090734876
:103BF00090F8230020B19DF8000040F030000090C4
:103C00006E4A1268117D6D4A526810786B46012227
:103C100001F0BCFF10B14FF0FF3066E767488474D5
:103C2000002062E738B50446644890F82300A042BB
:103C300001D1002038BD14B13020009001E00020F7
:103C400000905E48807C20B19DF8000040F00200AA
:103C500000905A4890F8220020B19DF8000040F0F2
:103C600080000090554A1268117D544A52681078BD
:103C70006B46012201F08AFF10B14FF0FF30D9E707
:103C80004E4880F823400020D4E738B5044604F0BD
:103C9000700010B10120009005E014B100200090E8
:103CA00001E040200090454A1268917C434A5268E6
:103CB00010786B46012201F069FF20B100213F48D6
:103CC0008172481E38BD9DF8000020F040013B483D
:103CD00001730020009004F0400020B99DF800001E
:103CE00040F00400009004F0200020B99DF800008E
:103CF00040F00200009004F0100020B99DF8000090
:103D000040F00100009004F0080020B99DF8000088
:103D100040F038000090294A1268D17C274A526846
:103D200010786B46012201F031FF20B100212348B9
:103D30008172481EC6E724B1082C02D00020FFF78C
:103D400071FF1E488472002101753220FFF744FD87
:103D50000020B7E708B51948807A10B94FF0FF3056
:103D600008BD00200090154A1268D17B134A5268A2
:103D700010786B46012201F009FF10B14FF0FF30BF
:103D8000EEE70E4A126851790C4A526810786B4679
:103D9000012201F0FBFE10B14FF0FF30E0E7074ACF
:103DA00012681179054A526810786B46012201F0B9
:103DB000EDFE28B14FF0FF30D2E700007C0000207C
:103DC000F74890F82400002853D00C200090F44AC3
:103DD00012681179F24A526810786B46012201F09C
:103DE000D5FE10B14FF0FF30BAE73220FFF7F4FCF8
:103DF000C0200090EA48807A00F0010020B19DF8D0
:103E0000000040F020000090E54A12681179E44A71
:103E1000526810786B46012201F0B8FE10B14FF0E5
:103E2000FF309DE7DE48407C10B10220009001E0A9
:103E300000200090DA4A1268D17BD94A5268107883
:103E40006B46012201F0A2FE10B14FF0FF3087E770
:103E500000200090D24A12685179D14A52681078F5
:103E60006B46012201F092FE002855D04FF0FF3042
:103E700076E704200090CA4A12681179C84A52684D
:103E800010786B46012201F081FE10B14FF0FF3037
:103E900066E7C348807C20B9C148807A00F0010001
:103EA00010B94020009001E060200090BC4A1268E8
:103EB0001179BB4A526810786B46012201F066FE08
:103EC00010B14FF0FF304BE73220FFF785FCB448CC
:103ED000407C10B10120009001E000200090B04A29
:103EE0001268D17BAE4A526810786B46012201F00D
:103EF0004DFE10B14FF0FF3032E7A94A12685179F8
:103F0000A74A52681078A64B1033012201F03EFEFA
:103F100010B14FF0FF3023E7002021E770B50446D1
:103F2000002624F001049E4890F8240008B10020E7
:103F300070BD9B48807A10B94FF0FF30F8E7984881
:103F4000057C807A2040964908740846007CA0428F
:103F500002D04FF0FF3600E0002614B99048007DF3
:103F600018B10120FFF72EFD02E00020FFF72AFD27
:103F70003CB1FFF7EFFE20B1894805744FF0FF30E8
:103F8000D6E73046D4E738B504468548807A10B97C
:103F90004FF0FF3038BDBC2C02DB0120009015E053
:103FA000622C02DB0220009010E02A2C02DB0320AE
:103FB00000900BE0142C02DB0420009006E00A2C99
:103FC00002DB0520009001E0062000907448C07AD2
:103FD0009DF80010884201D10020DBE7704A12688A
:103FE00091786F4A526810786B46012201F0CEFD3D
:103FF00010B14FF0FF30CDE79DF800106848C17256
:104000000020C7E738B50446282C02DD4FF0FF300A
:1040100038BDDCB90020FFF705FE00208DF8000058
:1040200007208DF801005E4A1268917C5C4A526854
:1040300010786B46022201F0A9FD10B14FF0FF305D
:10404000E6E70021564801750020E1E70120FFF76F
:10405000E9FD20208DF80000012C06D100208DF80C
:1040600001000520FFF78FFF17E0052C06DC01207B
:104070008DF801000520FFF786FF0EE0142C06DC0A
:1040800002208DF801000A20FFF77DFF05E00320E4
:104090008DF801001420FFF776FF9DF8010007213D
:1040A00001EB8010C0B28DF801003D4A1268917C8E
:1040B0003B4A526810786B46022201F067FD10B14E
:1040C0004FF0FF30A4E708213548817200210173C9
:1040D000012101750020FFF721FF002098E738B586
:1040E00004462F48807A10B94FF0FF3038BD2C4875
:1040F00090F8240010B14FF0FF30F7E72848007D1A
:1041000050B134B1282C04DCE0B2FFF77BFF002073
:10411000ECE70020FFF776FF042C01DA042404E02A
:10412000B4F57A7F01DD4FF47A744FF47A7090FB26
:10413000F4F0401EC0B20090194A12685178184A33
:10414000526810786B46012201F020FD10B14FF04B
:10415000FF30CBE79DF80000401C4FF47A7191FBD3
:10416000F0F081B20E48C1810146C9894810FFF7BD
:104170000AFF0020BAE738B504460948807A10B92A
:104180004FF0FF3038BD022C06D0042C0AD0082C8A
:104190000BD0102C0FD10BE0002000900EE000009F
:1041A0007C0000200820009008E01020009005E02E
:1041B0001820009002E04FF0FF30E3E700BFF8481E
:1041C000407A9DF80010B0EBE10F01D10020D9E753
:1041D000F34A1268D179F24A526810786B4601228C
:1041E00001F0D4FC10B14FF0FF30CBE79DF8000098
:1041F000C110EB4841720020C4E738B50446E848D6
:10420000807A10B94FF0FF3038BDFA2C09D0B4F5E0
:10421000FA7F09D0B4F57A7F09D0B4F5FA6F0CD1E2
:1042200008E0002000900BE00820009008E010203B
:10423000009005E01820009002E04FF0FF30E3E727
:1042400000BFD748007A9DF80010B0EBE10F01D114
:104250000020D9E7D24A12689179D14A5268107881
:104260006B46012201F092FC10B14FF0FF30CBE71A
:104270009DF80000C010CA4908720020C4E71CB5B0
:1042800080208DF80000C64A1268917CC44A5268AA
:1042900010786B46012201F079FC10B14FF0FF302D
:1042A0001CBD6420FFF798FA00208DF80000BC4A7E
:1042B0001268917CBA4A526810786B46012201F06C
:1042C00065FC10B14FF0FF30EAE70021B448C1743B
:1042D000FF218172FF20B2490872FF21B04841726C
:1042E000C1724FF6FF71C181FF21017481740121F8
:1042F000017380F82210002180F8231041750175A8
:104300001630016041608160163880F8241080F812
:104310002510C1844FF4FA60FFF76FFF10B14FF022
:10432000FF30BDE70420FFF726FF10B14FF0FF304C
:10433000B6E70120FFF727FE10B14FF0FF30AFE7DF
:104340004FF47A70FFF7CBFE10B14FF0FF30A7E7C4
:104350000020FFF7E3FD10B14FF0FF30A0E7002091
:10436000FFF7BCFB10B14FF0FF3099E77820FFF763
:104370008CFC0120FFF7B2FB002091E77CB50446DE
:104380000D468748807A00F0700010B94FF0FF307A
:104390007CBD834A1268117B814A526810786B4653
:1043A000062201F041FC10B14FF0FF30F0E79DF81C
:1043B00001009DF8001040EA012000B220809DF825
:1043C00003009DF8021040EA012000B260809DF8D1
:1043D00005009DF8041040EA012000B2A08015B14C
:1043E0002846FFF727FA0020D2E77CB504460D46A1
:1043F0006B48807A00F0080010B94FF0FF307CBDA8
:10440000674A1268517B664A526810786B460622EA
:1044100001F00AFC10B14FF0FF30F0E79DF8010009
:104420009DF8001040EA012000B220809DF80300B2
:104430009DF8021040EA012000B260809DF805005E
:104440009DF8041040EA012000B2A08015B1284672
:10445000FFF7F0F90020D2E72DE9FE4F05460C46A4
:104460004F48807A18B94FF0FF30BDE8FE8F4C4AB4
:104470001268917B4A4A5268107802AB022201F01E
:10448000D3FB10B14FF0FF30EFE79DF809009DF826
:10449000081040EA012006B214B12046FFF7CAF91D
:1044A0003F494968C88802F0E0FA3D4901904968EF
:1044B000B1F9080002F0D0FA8346304602F0CCFA97
:1044C0005946009002F0CAF88246019902F0FEF8BF
:1044D0008146344902F070F880464FF08F4102F077
:1044E000C3F8074602F0D7FA28600020BDE71CB5E4
:1044F00004462B49496808786B460222772101F06F
:1045000093FB10B14FF0FF301CBD25494968087876
:104510000DF1020302227A2101F086FB10B14FF067
:10452000FF30F1E71E494968087801AB02227D217E
:1045300001F07AFB10B14FF0FF30E5E79DF8010084
:104540009DF8001040EA012020609DF803009DF8CE
:10455000021040EA012060609DF805009DF80410FB
:1045600040EA0120A0600020CEE71CB504460C49BB
:10457000496808786B460222062101F055FB10B10C
:104580004FF0FF301CBD0649496808780DF1020361
:104590000222082101F048FB30B14FF0FF30F1E773
:1045A0007C00002000000C42F9494968087801AB02
:1045B00002220A2101F038FB10B14FF0FF30E1E791
:1045C0009DF801009DF8001040EA012020609DF850
:1045D00003009DF8021040EA012060609DF805008C
:1045E0009DF8041040EA0120A0600020CAE71CB535
:1045F0000446E749496808786B460222132101F016
:1046000013FB10B14FF0FF301CBDE1494968087839
:104610000DF102030222152101F006FB10B14FF04B
:10462000FF30F1E7DA494968087801AB0222172127
:1046300001F0FAFA10B14FF0FF30E5E79DF8010004
:104640009DF8001040EA012020609DF803009DF8CD
:10465000021040EA012060609DF805009DF80410FA
:1046600040EA0120A0600020CEE77CB5044600208F
:1046700000900190002500BF05E054F8250040425D
:1046800044F825006D1C032DF7DB2088000A8DF807
:10469000000020788DF80100A088000A8DF8020043
:1046A00020798DF803002089000A8DF80400207A13
:1046B0008DF80500B649496808786B460222132137
:1046C00001F064FA10B14FF0FF307CBDB049496889
:1046D00008780DF102030222152101F057FA10B1FA
:1046E0004FF0FF30F1E7AA494968087801AB022290
:1046F000172101F04BFA10B14FF0FF30E5E7002031
:10470000E3E770B586B00446002004900590019060
:104710000290039001260090002501A8FFF725FFD5
:1047200010B1681E06B070BD002509E001A850F860
:104730002500304010B101200DF80500681CC5B2FD
:10474000032DF3DB01982168401A019002986168FB
:10475000401A02900398A168401A03900198000A39
:104760008DF810000198C0B28DF811009DF811006D
:104770009DF8001008438DF811000298000A8DF88A
:1047800012000298C0B28DF813009DF813009DF836
:10479000011008438DF813000398000A8DF81400E7
:1047A0000398C0B28DF815009DF815009DF8021011
:1047B00008438DF8150076494968087804AB022251
:1047C000062101F0E3F910B14FF0FF30AAE770497C
:1047D000496808780DF112030222082101F0D6F988
:1047E00010B14FF0FF309DE769494968087805AB83
:1047F00002220A2101F0CAF910B14FF0FF3091E70F
:1048000000208FE770B586B0044600200490059024
:1048100001900290039001260090002501A8FFF767
:1048200066FE10B1681E06B070BD002509E001A843
:1048300050F82500304010B101200DF80500681C2B
:10484000C5B2032DF3DB01982168401A019002984C
:104850006168401A02900398A168401A0390019879
:10486000000A8DF810000198C0B28DF811009DF873
:1048700011009DF8001008438DF811000298000AFD
:104880008DF812000298C0B28DF813009DF8130045
:104890009DF8011008438DF813000398000A8DF865
:1048A00014000398C0B28DF815009DF815009DF80E
:1048B000021008438DF8150035494968087804ABA3
:1048C0000222772101F062F910B14FF0FF30AAE720
:1048D0002F49496808780DF1120302227A2101F06C
:1048E00055F910B14FF0FF309DE729494968087824
:1048F00005AB02227D2101F049F910B14FF0FF30E4
:1049000091E700208FE701462148007A30B1012865
:1049100007D0022809D003280FD10AE0FA20088026
:104920000EE04FF4FA7008800AE04FF47A700880C5
:1049300006E04FF4FA60088002E00020088000BF23
:1049400000BF0020704701461148407A30B101286D
:1049500007D0022808D003280CD108E002200870F4
:104960000BE00420087008E00820087005E0102023
:10497000087002E04FF0FF30704700BF0448C07C71
:1049800018B108784006000E08700020F4E7000017
:104990007C0000200146F948C07A082817D2DFE8D9
:1049A00000F01704070A0D101318BC20088013E04C
:1049B0006220088010E02A2008800DE01420088082
:1049C0000AE00A20088007E00520088004E000BF14
:1049D00000BF0020088000BF00BF002070470146D4
:1049E000E64890F8240010B14FF0FF307047E348DC
:1049F000C08908800020F9E7014600200880401E99
:104A0000704701464FF0FF3070470146DB48007A9F
:104A100030B1012807D0022808D003280CD108E0C3
:104A2000D74808600BE0D748086008E0D64808601F
:104A300005E0D648086002E04FF0FF30704700BF45
:104A40000020FBE70146CD48407A30B1012808D06C
:104A500002280AD0032810D10BE04FF480400880D0
:104A60000EE041F69C7008800AE04FF48050088008
:104A700006E04FF40060088002E04FF0FF3070471E
:104A800000BFBE48C07C10B10888401008800020DC
:104A9000F5E70146B948007C0870002070470146E0
:104AA000B648807A10B10120087001E0002008703B
:104AB0000020704738B50446B048807A10B94FF0EE
:104AC000FF3038BDAD4A1268117CAC4A526810788C
:104AD0006B46022201F0A8F810B14FF0FF30F0E76A
:104AE0009DF801009DF8001040EA012000B22080EE
:104AF0000020E6E72DE9FE4F0746884692461D4610
:104B0000DDF830B0002600249C4890F8240010B155
:104B1000601EBDE8FE8F002028709848807A10B98A
:104B20004FF0FF30F5E79548007C10B94FF0FF30AB
:104B3000EFE79248007C00F0400008B1B01CC6B21C
:104B40008E48007C00F0200008B1B01CC6B28B4833
:104B5000007C00F0100008B1B01CC6B28748007C91
:104B600000F0080008B1B01DC6B2844A1268917AFC
:104B7000824A526810786B46022201F055F810B153
:104B80004FF0FF30C5E79DF801009DF8001040EAA6
:104B90000129B14501DA0020BBE778484068408828
:104BA000B9EB600F17DD754A1268517C734A526881
:104BB00010786B46012201F037F810B14FF0FF304A
:104BC000A7E79DF8000000F0100020B1FFF7C2F841
:104BD0006FF001009DE75046FEF72CFE674A126811
:104BE000D17A664A526810786B46324601F01CF85A
:104BF00010B14FF0FF308CE799FBF6F0401E8BF8B8
:104C0000000000202870B4422AD05C48007C00F0EC
:104C1000080028B3601C1DF800001DF8041040EACD
:104C2000012000B2A8F80000E01C1DF80010A01C34
:104C30001DF8000041EA002000B2A8F80200601D43
:104C40001DF80010201D1DF8000041EA002000B2F0
:104C5000A8F80400287840F008002870A01D84B24D
:104C6000B44213D04548007C00F0400070B1601C95
:104C70001DF800001DF8041040EA012000B2388041
:104C8000287840F040002870A01C84B2B44213D0B1
:104C90003A48007C00F0200070B1601C1DF8000054
:104CA0001DF8041040EA012000B27880287840F016
:104CB00020002870A01C84B2B44213D02F48007C7E
:104CC00000F0100070B1601C1DF800001DF8041009
:104CD00040EA012000B2B880287840F01000287027
:104CE000A01C84B2002014E7F8B504460F4616460F
:104CF000224890F8240010B94FF0FF30F8BD1F484B
:104D0000807A10B94FF0FF30F8E71C4A1268917AA8
:104D10001A4A526810786B46022200F085FF10B1E3
:104D20004FF0FF30EAE79DF801009DF8001040EADF
:104D30000125A54203DA00203070401EDEE70F484F
:104D400040684088B5EB600F22DD0C4A1268517C48
:104D50000A4A526810786B46012200F065FF10B1D4
:104D60004FF0FF30CAE79DF8000000F0100078B166
:104D7000FEF7F0FF6FF00100C0E700007C000020AC
:104D80000000034300008342333303423333834143
:104D9000E2B2FE4B1B68D97AFC4B5B6818783B4645
:104DA00000F042FF10B14FF0FF30A7E795FBF4F0A1
:104DB000401E30700020A1E70146F44880F8221020
:104DC000002070477CB50546F0494968087801AB7A
:104DD00004220D2100F028FF08B107207CBD9DF8BA
:104DE0000700C0F301109DF8041001F0E00140EA53
:104DF000E1008DF800009DF80700C0F381009DF8E8
:104E0000051001F0E00140EAE1008DF801009DF895
:104E1000070000F003009DF8061001F0E00140EAF1
:104E2000E1008DF8020000241CE01DF8040018B910
:104E3000002045F8240013E0D54845F8240006E09A
:104E400055F82400D34901F00FFC45F824001DF863
:104E50000400401EC0B20DF804000028F0D100BFCD
:104E6000601CC4B2032CE0DB0020B7E72DE9FE4F45
:104E700006460F4600256846FFF7A4FF002442E0DF
:104E800056F8240057F82410A0EB010ABAF1000FDD
:104E900001DB514601E0CAF10001084601F0DCFDEA
:104EA00083464FF08F4101F011FC80465DF82400ED
:104EB000002101F051FE16D05DF82410404601F0AB
:104EC00005FC82464FF07E5101F0C8FB814629F077
:104ED000004AB148416A504601F048FE12D2012012
:104EE000A04005430EE0AC48C169404601F034FEE5
:104EF00005D3A948016A404601F038FE02D20120DC
:104F0000A0400543641C032CBADB2846BDE8FE8F95
:104F10002DE9FC5F06460F4600259C494968087844
:104F200001AB03220D2100F07FFE10B10720BDE888
:104F3000FC9F9DF8040000F01F008DF804009DF810
:104F4000050000F01F008DF805009DF8060000F038
:104F50001F008DF80600002456E056F8240057F88C
:104F60002410A0EB010BBBF1000F01DB594601E05F
:104F7000CBF10001084601F06FFD4FF08F4100902A
:104F800001F0A4FB814601A8005D68B3824908686E
:104F900001F06BFD83465946804801F097FB80463F
:104FA00004E07F49404601F05FFB804601A8005DB8
:104FB000401EC0B201A908550028F2D1414648461A
:104FC00001F084FB83464FF07E5101F047FB82469F
:104FD0002AF0004B70488169584601F0C7FD12D293
:104FE0000120A04005430EE06B480169484601F0EE
:104FF000B3FD05D368484169484601F0B7FD02D2C8
:105000000120A0400543641C032CA6DB28468EE744
:105010002DE9F04F87B005460C46914601208DF8EA
:10502000100000208DF81100584A1268917C574AF0
:105030005268107804AB022200F0A8FD20B14FF0B6
:10504000FF3007B0BDE8F08FC820FEF7C5FB002099
:105050008DF810004D4A1268D17B4C4A5268107886
:1050600004AB012200F092FD10B14FF0FF30E8E7F1
:10507000464A12685179454A5268107804AB0122B9
:1050800000F084FD10B14FF0FF30DAE73F4A1268BC
:10509000917C3E4A5268107804AB012200F076FD04
:1050A00010B14FF0FF30CCE7384A1268D17D374A53
:1050B0005268107804AB012200F068FD10B14FF087
:1050C000FF30BEE7314A12681179304A52681078D1
:1050D00004AB012200F05AFD10B14FF0FF30B0E7F1
:1050E0000C208DF81000294A12681179274A52685D
:1050F000107804AB012200F049FD10B14FF0FF30F1
:105100009FE70F20FEF768FB2048806A407A8DF801
:1051100010001E4A126891781C4A5268107804AB3D
:10512000012200F033FD10B14FF0FF3089E717483E
:10513000806A007A8DF81000144A12685178134A78
:105140005268107804AB012200F020FD10B14FF03E
:10515000FF3076E7B9F1000F07D00C48806A807AFB
:1051600040F0E0008DF8100004E00848806A807A82
:105170008DF81000054A12689179044A5268107837
:1051800004AB012200F002FD78B10BE07C000020AE
:105190007B14AE3E1D5A843FCC6F000800B04C45D6
:1051A00054E3853F4FF0FF304BE7B9F1000F07D0D4
:1051B000F748806AC07A40F0E0008DF8100003E004
:1051C000F448C07A8DF81000F14A1268D179F04A9B
:1051D0005268107804AB012200F0D8FC10B14FF0F7
:1051E000FF302EE7B9F1000F02D0C820FEF7F4FA25
:1051F00040208DF81000E64A12681179E44A52689E
:10520000107804AB012200F0C1FC10B14FF0FF3068
:1052100017E778208DF81000DD4A12685179DC4AD2
:105220005268107804AB012200F0B0FC10B14FF0CE
:10523000FF3006E7D7498889FEF7CEFA00208DF8BF
:105240001000D34A12685179D14A5268107804ABE1
:10525000012200F09BFC10B14FF0FF30F1E6CC4A88
:105260001268917ACA4A5268107804AB022200F0A0
:10527000DBFC10B14FF0FF30E3E69DF811009DF824
:10528000101040EA012B0C209BFBF0F0C6B200206E
:10529000A86068602860A06060602060824665E069
:1052A000BB4A1268D17ABA4A5268107804AB0C2211
:1052B00000F0BAFC10B14FF0FF30C2E69DF81100CB
:1052C0009DF8101040EA012000B2ADF808009DF8EA
:1052D00013009DF8121040EA012000B2ADF80A0058
:1052E0009DF815009DF8141040EA012000B2ADF8B9
:1052F0000C00BDF90810206808442060BDF90A10B0
:10530000606808446060BDF90C10A0680844A060A3
:105310009DF817009DF8161040EA012000B2ADF884
:1053200000009DF819009DF8181040EA012000B215
:10533000ADF802009DF81B009DF81A1040EA01200C
:1053400000B2ADF80400BDF90010286808442860D8
:10535000BDF90210686808446860BDF90410A868C7
:105360000844A8600AF1010000F0FF0AB24597DB8B
:105370008848D0F800C02868C117090441EA1041E4
:10538000070462460023384601F0DCF83246002369
:10539000CDE9020101F0D6F828607E48D0F800C0BF
:1053A0006868C117090441EA1041070462460023F6
:1053B000384601F0C7F832460023CDE9020101F07A
:1053C000C1F868607348D0F800C0A868C117090424
:1053D00041EA1041070462460023384601F0B2F862
:1053E00032460023CDE9020101F0ACF8A86069481B
:1053F000D0F804C02168C817000440EA11480F041F
:10540000624600233846414601F09CF832460023AC
:10541000CDE9020101F096F820605E48D0F804C0A2
:105420006068C117090441EA10410704624600237D
:10543000384601F087F832460023CDE9020101F039
:1054400081F860605348D0F804C0A068C11709040F
:1054500041EA1041070462460023384601F072F821
:1054600032460023CDE9020101F06CF8A060A0688B
:10547000002804DDA068A0F58030A06003E0A068EB
:1054800000F58030A0600020DBE538B504464048D8
:1054900090F82400A04201D1002038BD24B33C483C
:1054A00090F8250010B94FF0FF30F6E70020FEF726
:1054B00089FA0020FEF712FB3549C88CFEF70FFE73
:1054C000002000903249496808786B460122232168
:1054D00000F05CFB01212E4880F824100120FEF72B
:1054E00071FAFEF737FC13E00020FEF76BFA28484C
:1054F000007C00902649496808786B4601222321E8
:1055000000F044FB0021224880F82410FEF722FC22
:105510000020C2E72DE9F04F8DB083460F460220F0
:105520000C901B4890F8240020B10020FFF7ADFF3D
:10553000012600E0002603A8FFF7E5F905A8FFF71C
:1055400002FA01A8FFF726FA02A8FFF748FA104866
:1055500090F80AA004A8FFF79CFA002407E00022B4
:1055600039465846FFF754FD00B902E0641C022C8E
:10557000F5DB00BF022C01D100252FE000240CE058
:10558000012206A909A8FFF743FD28B907E000009A
:105590007C000020CC6F0008641C022CF0DB00BFF4
:1055A000022C01D1002519E006A93846FFF75EFC60
:1055B00000F0FF0809A95846FFF7AAFC00F0FF0910
:1055C0000025B9F1000F01D145F00105B8F1000F38
:1055D00001D145F0020545F0040500BFFF20C14997
:1055E0000872FF21BF484172C1724FF6FF71C1813D
:1055F000FF218172017401210173BDF80C00FEF7D7
:10560000FCFD9DF81400FEF7B6FDBDF80400FEF7A2
:10561000BAFCBDF80800FEF762FD5046FEF735FB08
:105620009DF81000FEF77AFC16B10120FFF72DFF60
:1056300028460DB0BDE8F08FF8B504460D46164675
:1056400016B94FF0FF30F8BDA648807A10B94FF078
:10565000FF30F8E720128DF80000E0B28DF801006D
:105660009DF8010028449F4949684989884202DD24
:105670004FF0FF30E7E79B4A1268117E994A526863
:1056800010786B46022200F081FA10B14FF0FF3023
:10569000D9E7EAB2934B1B68597D924B5B68187847
:1056A000334600F073FA10B14FF0FF30CBE7002023
:1056B000C9E7F8B504460D46164616B94FF0FF3057
:1056C000F8BD8848807A10B94FF0FF30F8E7201213
:1056D0008DF80000E0B28DF801009DF8010028442B
:1056E000804949684989884202DD4FF0FF30E7E789
:1056F0007C4A1268117E7B4A526810786B460222FF
:1057000000F044FA10B14FF0FF30D9E7EAB2754B20
:105710001B68597D734B5B681878334600F084FA38
:1057200010B14FF0FF30CBE70020C9E72DE9F0437F
:1057300085B005460E46904699466A4890F8250081
:1057400020B14FF0FF3005B0BDE8F08316B94FF03F
:10575000FF30F8E7002423E0281B102801DD10208B
:1057600000E0281B87B2321939462046FFF764FF54
:1057700010B14FF0FF30E6E701AA39462046FFF7A7
:1057800098FF10B14FF0FF30DDE730193A4601A91C
:1057900000F005FF10B16FF00100D4E7E01984B20A
:1057A000AC42D9DB4FEA28208DF8000008F0FF005A
:1057B0008DF801004B4A1268917E4A4A526810786F
:1057C0006B46022200F0E2F910B14FF0FF30BAE769
:1057D0000121444880F82510A0F826900020B2E767
:1057E0000146404890F824000870002070470246A7
:1057F0004FF0FF30704701464FF0FF30704770B5F3
:1058000006460C46154665B304B901243548407D6B
:10581000002833D1334890F8240038B10020FFF736
:1058200034FE01212F4880F8201003E000212D488C
:1058300080F820102B481630FFF765F829481830FB
:10584000FFF781F827481A30FFF7A4F825481C30E5
:10585000FFF7C5F82348817A81771F30FFF719F9E0
:105860000CE0204A1632002103E0505C00B106E053
:10587000491C0C29F9D34FF0FF3070BD00BFFF2049
:1058800018490872FF2117484172C1724FF6FF7123
:10589000C181FF2181720174012101730146887F5A
:1058A000FEF7F3F90F49C88AFEF7A7FC0D49087EF9
:1058B000FEF761FC0B49488BFEF765FB0949888BB5
:1058C000FEF70DFC0749C87FFEF728FB054890F856
:1058D000200010B10120FFF7D8FD002101484175DB
:1058E0000020CAE77C00002008B50E20009002E0EE
:1058F0000098401E009000980028F9D108BD10B50E
:105900002021E548FBF7C3FE1021E348FBF7BFFE6B
:105910000420FDF771FF2021DF48FBF79EFE08B948
:10592000002010BD2021DC48FBF7B3FE0420FDF76A
:1059300063FF2021D848FBF790FE08B10020F0E774
:105940002021D548FBF7A5FE0420FDF755FF0120D7
:10595000E7E710B51021D048FBF79BFE0420FDF7C8
:105960004BFF2021CC48FBF794FE0420FDF744FFB9
:105970001021C948FBF78BFE0420FDF73DFF2021D5
:10598000C548FBF784FE0420FDF736FF10BD10B5B7
:105990001021C148FBF77DFE0420FDF72DFF2021DB
:1059A000BD48FBF776FE0420FDF726FF1021BA481C
:1059B000FBF76DFE0420FDF71FFF1021B648FBF733
:1059C00068FE0420FDF718FF10BD10B51021B24885
:1059D000FBF75FFE0420FDF70FFF2021AE48FBF729
:1059E00056FE0420FDF708FF1021AB48FBF74FFEE1
:1059F0000420FDF701FF1021A748FBF74AFE042011
:105A0000FDF7FAFE10BD10B51021A348FBF741FECB
:105A10000420FDF7F1FE20219F48FBF738FE04200B
:105A2000FDF7EAFE10219C48FBF731FE0420FDF74C
:105A3000E3FE20219848FBF710FE28B1102196487C
:105A4000FBF727FE002010BD10219348FBF721FE35
:105A50000120F8E770B5044608251EE010218E48A5
:105A6000FBF717FE0420FDF7C7FE04F0800020B10D
:105A700020218948FBF70BFE03E020218648FBF735
:105A800008FE6006040E0420FDF7B6FE10218248D1
:105A9000FBF7FDFD0420FDF7AFFE2800A5F1010195
:105AA000CDB2DBD110217C48FBF7F3FD70BD70B5A2
:105AB0000825002420217848FBF7E9FD16E0600660
:105AC000040E10217448FBF7E4FD0420FDF794FE5A
:105AD00010217148FBF7DBFD0420FDF78DFE20212E
