:020000040800F2
:10000000E0260020A1E300081503000817030008FC
:100010001B0300081F030008230300080000000062
:10002000000000000000000000000000270300089E
:1000300029030008000000004B4D00082B030008B6
:10004000BBE30008BBE30008BBE30008BBE3000818
:10005000BBE30008BBE30008BBE30008BBE3000808
:10006000BBE30008BBE30008BBE30008BBE30008F8
:100070009F1E0008BBE30008BBE30008BBE30008C9
:10008000F7220008BBE30008BBE300086304000894
:100090007F040008BBE30008BBE30008BBE30008E3
:1000A000BBE30008BBE30008BBE30008BBE30008B8
:1000B000BBE30008BBE30008BBE30008BBE30008A8
:1000C000BBE30008BBE30008BBE30008BBE3000898
:1000D000BBE30008BBE30008BBE30008BBE3000888
:1000E000BBE30008BBE30008BBE30008BBE3000878
:1000F000BBE30008BBE30008BBE30008BBE3000868
:10010000BBE30008BBE30008BBE30008BBE3000857
:10011000BBE30008BBE30008BBE300088B14000846
:10012000BBE30008BBE30008BBE30008BBE3000837
:10013000BBE30008BBE30008BBE30008BBE3000827
:10014000BBE30008BBE30008BBE30008BBE3000817
:10015000BBE30008BBE30008BBE30008BBE3000807
:10016000BBE30008BBE30008BBE30008BBE30008F7
:10017000BBE30008BBE30008BBE30008BBE30008E7
:10018000BBE30008BBE3000800F002F800F0B2F89F
:100190000AA090E8000C82448344AAF10107DA45E2
:1001A00001D100F0A7F8AFF2090EBAE80F0013F082
:1001B000010F18BFFB1A43F0010318472824010060
:1001C000482401000A444FF0000C10F8013B13F0E2
:1001D000070408BF10F8014B1D1108BF10F8015BA0
:1001E000641E05D010F8016B641E01F8016BF9D193
:1001F00013F0080F1EBF10F8014BAD1C0C1B09D1EA
:100200006D1E58BF01F801CBFAD505E014F8016B5B
:1002100001F8016B6D1EF9D59142D6D370470000ED
:100220000023002400250026103A28BF78C1FBD8FF
:10023000520728BF30C148BF0B6070476E290EF0CF
:10024000A38270290EF0E383662911F0B184652939
:1002500011F0AE84672911F0AB846129AFF30080FF
:1002600003681B0A28BF41F0800169290EF0528201
:1002700064290EF04F8275290EF04C826F290EF022
:10028000718378290EF0AF83E9290EF00D83E429FC
:100290000EF00A83F5290EF00783EF290EF06E8326
:1002A000F8290EF0AE830368DB0928BF41F0800116
:1002B00063290EF0368773290EF03B87E3290EF091
:1002C0004687F3290EF04B87002070471FB511F0C9
:1002D0006AFC0EF097FF04000020002110F0FCFDE6
:1002E000401C60600020002110F0E0FDE0601FBDB8
:1002F00010B510BD0EF058FF1146FFF7E7FF01F0F3
:100300003FF90FF02FF803B4FFF7F2FF03BC0FF033
:100310002FF80000704700BFFEE700BFFEE700BFF8
:10032000FEE700BFFEE77047704710B504F0ECFC35
:10033000044608480078012804D107480078401C8A
:1003400005490870204604F0E3FC05F00FF804F0BE
:10035000E3FE10BD8E0100208101002000B58BB0AE
:100360000121084602F0FCFC0121480602F02BFDA9
:1003700009220C21FD4802F038FB09220B21FB4821
:1003800002F033FB4FF4C050029002208DF80C00B5
:1003900002A9F64802F09EFA14208DF8040002200B
:1003A0008DF8050001208DF806008DF8070001A8E2
:1003B00001F0E3FF13208DF8040001208DF8050003
:1003C0008DF806008DF8070001A801F0D6FFE84877
:1003D00003F064FE08A803F085FF00208DF82600D6
:1003E0008DF827008DF828008DF829008DF82A0057
:1003F00001208DF82B0000208DF822008DF82300BD
:1004000008208DF8240003208DF82500ADF8200089
:1004100008A9D74803F05BFE00208DF81A008DF87C
:100420001B0001208DF81C000020ADF81000ADF875
:100430001200ADF81400ADF81600ADF81800012058
:100440008DF81D0004A803F0CCFE01220221C8484B
:1004500004F0C6F901221146C54804F0C1F90BB0F9
:1004600000BD10B50121C24804F022FA30B10121CB
:10047000BF4804F0B8FA0120BE49087010BD00B5AD
:1004800085B00221BA4804F013FA002834D00221C2
:10049000B74804F0A8FA6A460021B54804F085F888
:1004A0009DF80800002827D19DF808000028FAD1FF
:1004B0009DF80A000828F6D100981B281DD1AE48E7
:1004C00090F860000028EED19DF80F100A069DF804
:1004D000101042EA01429DF8111042EA01219DF8F4
:1004E000122041EA020010F090FFA34AC2E906017F
:1004F00000F077FFA049C860B2E000982B281DD11A
:100500009D4890F860000028F6D19DF80F100A066B
:100510009DF8101042EA01429DF8111042EA0121B3
:100520009DF8122041EA020010F06FFF924AC2E9E2
:10053000080100F056FF9049086191E000983B28BF
:100540001DD18D4890F860000028D5D19DF80F107E
:100550000A069DF8101042EA01429DF8111042EA85
:1005600001219DF8122041EA020010F04EFF824A5C
:10057000C2E90A0100F035FF7F49486170E0009848
:100580004B2822D19DF80C009DF80B1040EA012069
:1005900000B27A49C8809DF80E109DF80D0041EA1E
:1005A000002000B27649C8809DF80F0001069DF832
:1005B000100041EA00419DF8110041EA00209DF839
:1005C000121008436F49C8604AE000981F2803D101
:1005D00001206D49087043E000982F2803D10120C5
:1005E000694948703CE000983F2803D101206649E2
:1005F000887035E000984F2803D101206249C87007
:100600002EE000981C2808D19DF80B005F49087067
:100610009DF80C005E49087022E000982C2808D153
:100620009DF80B00594948709DF80C0058494870D6
:1006300016E000983C2808D19DF80B0053498870BB
:100640009DF80C00524988700AE000984C2807D1A8
:100650009DF80B004D49C8709DF80C004C49C870BE
:1006600005B000BD70B586B004460D4600260020DA
:100670008DF80C008DF80D0008208DF80E00082C68
:100680000FD2DFE804F00405060708090A0B00BFD3
:1006900000BF00BF00BF00BF00BF00BF46EA042686
:1006A00001E006B070BD00BF102D1BD2DFE805F0E1
:1006B00008090A0B0C0D0E0F101112131415161742
:1006C00000BF00BF00BF00BF00BF00BF00BF00BF32
:1006D00000BF00BF00BF00BF00BF00BF00BF46EAB1
:1006E000051600E0DDE700BF019655208DF80F00EC
:1006F00055218DF810108DF811108DF812108DF80D
:1007000013108DF814108DF815108DF816100020A8
:100710001849087001A9164803F052FE00BF154899
:1007200000780028FBD000BFBBE7F0B585B00446D9
:100730000D461746012600208DF808008DF80900A7
:1007400008208DF80A00082C24D2DFE804F0040504
:10075000060708090A0B00BF00BF00BF00BF00BFAB
:1007600000BF00BF46EA042616E000000000024079
:10077000006400400100002020040020020000204E
:100780000A00002060030020120000201600002054
:100790001A00002005B0F0BD00BF102D1BD2DFE80D
:1007A00005F008090A0B0C0D0E0F10111213141589
:1007B000161700BF00BF00BF00BF00BF00BF00BFD3
:1007C00000BF00BF00BF00BF00BF00BF00BF00BF31
:1007D00046EA051600E0DDE700BF00968DF80B70D5
:1007E00055218DF80C108DF80D108DF80E108DF828
:1007F0000F108DF810108DF811108DF812100020C8
:10080000FE4908706946FE4803F0DAFD00BFFB4868
:1008100000780028FBD000BFBCE7F0B585B00546E6
:100820000E461446022700208DF808008DF80900B6
:1008300008208DF80A00082D0FD2DFE805F0040526
:10084000060708090A0B00BF00BF00BF00BF00BFBA
:1008500000BF00BF47EA052701E005B0F0BD00BFBB
:10086000102E1BD2DFE806F008090A0B0C0D0E0F44
:10087000101112131415161700BF00BF00BF00BFE0
:1008800000BF00BF00BF00BF00BF00BF00BF00BF70
:1008900000BF00BF00BF47EA061700E0DDE700BF6A
:1008A000009741F28830844201DD044603E0D548D8
:1008B000844200DA0446200A8DF80B00E1B28DF87C
:1008C0000C1055218DF80D108DF80E108DF80F10AD
:1008D0008DF810108DF811108DF812100020C749F6
:1008E00008706946C64803F06BFD00BFC348007836
:1008F0000028FBD000BFB0E72DE9F0412DED048BBF
:1009000086B005460E4614461F464FF003080020E9
:100910008DF80C008DF80D0008208DF80E00082DC4
:100920000FD2DFE805F00405060708090A0B00BF2F
:1009300000BF00BF00BF00BF00BF00BF48EA0528DE
:1009400004E006B0BDEC048BBDE8F08100BF102EC2
:100950001BD2DFE806F008090A0B0C0D0E0F101170
:1009600012131415161700BF00BF00BF00BF00BF51
:1009700000BF00BF00BF00BF00BF00BF00BF00BF7F
:1009800000BF00BF48EA061800E0DAE700BFCDF874
:10099000048041F28830844201DD044603E0994836
:1009A000844200DA0446002C13DA204610F02DFDB4
:1009B00041EC190BB0EE490AF0EE690A01F061F85A
:1009C000B0EE408AF0EE608A51EC180B10F0EEFCAD
:1009D00004B2200A8DF80F008DF81040390A8DF806
:1009E00011108DF8127055218DF813108DF8141018
:1009F0008DF815108DF8161000208049087001A997
:100A00007F4803F0DDFC00BF7C4800780028FBD065
:100A100000BF96E72DE9F0412DED048B86B0054629
:100A20000E4614461F464FF0040800208DF80C00B7
:100A30008DF80D0008208DF80E00082D0FD2DFE88C
:100A400005F00405060708090A0B00BF00BF00BF38
:100A500000BF00BF00BF00BF48EA052804E006B0A1
:100A6000BDEC048BBDE8F08100BF102E1BD2DFE887
:100A700006F008090A0B0C0D0E0F101112131415B5
:100A8000161700BF00BF00BF00BF00BF00BF00BF00
:100A900000BF00BF00BF00BF00BF00BF00BF00BF5E
:100AA00048EA061800E0DAE700BFCDF8048041F21A
:100AB0008830844201DD044603E05248844200DA73
:100AC0000446002C13DA204610F09FFC41EC190B71
:100AD000B0EE490AF0EE690A00F0D3FFB0EE408AAA
:100AE000F0EE608A51EC180B10F060FC04B2200AA2
:100AF0008DF80F008DF81040390A8DF811108DF81F
:100B0000127055218DF813108DF814108DF81510F2
:100B10008DF8161000203949087001A9384803F0F3
:100B20004FFC00BF354800780028FBD000BF96E797
:100B30002DE9F0412DED048B86B006460F46144694
:100B40001D464FF0050800208DF80C008DF80D00B3
:100B500008208DF80E00082E0FD2DFE806F00405FD
:100B6000060708090A0B00BF00BF00BF00BF00BF97
:100B700000BF00BF48EA062804E006B0BDEC048BC5
:100B8000BDE8F08100BF102F1BD2DFE807F0080995
:100B90000A0B0C0D0E0F101112131415161700BFAF
:100BA00000BF00BF00BF00BF00BF00BF00BF00BF4D
:100BB00000BF00BF00BF00BF00BF00BF48EA07186A
:100BC00000E0DAE700BFCDF8048041F288308442CB
:100BD00001DD044603E00B48844200DA0446002CA1
:100BE0001BDA204610F011FC41EC190BB0EE490A5B
:100BF000F0EE690A00F045FF06E000000100002069
:100C00000064004078ECFFFFB0EE408AF0EE608AAE
:100C100051EC180B10F0CAFB04B2200A8DF80F003B
:100C20008DF8104055218DF811108DF81210290EF5
:100C30008DF81310290C8DF81410290A8DF8151051
:100C40008DF816500020F849087001A9F74803F004
:100C5000B7FB00BFF44800780028FBD000BF8CE74A
:100C60002DE9F0432DED048B85B006460F46144662
:100C70001D46DDF840804FF0060900208DF8080081
:100C80008DF8090008208DF80A00082E0FD2DFE841
:100C900006F00405060708090A0B00BF00BF00BFE5
:100CA00000BF00BF00BF00BF49EA062904E005B04D
:100CB000BDEC048BBDE8F08300BF102F1BD2DFE832
:100CC00007F008090A0B0C0D0E0F10111213141562
:100CD000161700BF00BF00BF00BF00BF00BF00BFAE
:100CE00000BF00BF00BF00BF00BF00BF00BF00BF0C
:100CF00049EA071900E0DAE700BFCDF8009041F2B9
:100D00008830844201DD044603E0C948844200DAA9
:100D10000446002C13DA204610F077FB41EC190B47
:100D2000B0EE490AF0EE690A00F0ABFEB0EE408A80
:100D3000F0EE608A51EC180B10F038FB04B2002D75
:100D400013DA284610F061FB41EC190BB0EE490AAA
:100D5000F0EE690A00F095FEB0EE408AF0EE608A8F
:100D600051EC180B10F022FB05B2200A8DF80B0095
:100D7000E1B28DF80C10290A8DF80D10E9B28DF84A
:100D80000E104FEA18618DF80F104FEA18418DF8D8
:100D900010104FEA18218DF8111008F0FF018DF89E
:100DA00012100020A04908706946A04803F008FB13
:100DB00000BF9D4800780028FBD000BF77E72DE9F1
:100DC000F0412DED048B86B005460E4614461F46B5
:100DD0004FF0070800208DF80C008DF80D0008205A
:100DE0008DF80E00082D0FD2DFE805F00405060788
:100DF00008090A0B00BF00BF00BF00BF00BF00BF53
:100E000000BF48EA052804E006B0BDEC048BBDE84D
:100E1000F08100BF102E1BD2DFE806F008090A0B94
:100E20000C0D0E0F101112131415161700BF00BF72
:100E300000BF00BF00BF00BF00BF00BF00BF00BFBA
:100E400000BF00BF00BF00BF00BF48EA061800E0B7
:100E5000DAE700BFCDF80480002C13DA204610F04A
:100E6000D4FA41EC190BB0EE490AF0EE690A00F031
:100E700008FEB0EE408AF0EE608A51EC180B10F0DC
:100E800095FA04B2200A8DF80F008DF81040390A47
:100E90008DF811108DF8127055218DF813108DF802
:100EA00014108DF815108DF8161000205E4908708A
:100EB00001A95E4803F084FA00BF5B48007800286F
:100EC000FBD000BFA0E72DE9F0412DED048B86B0EB
:100ED00006460F4614461D464FF0080800208DF8C0
:100EE0000C008DF80D0008208DF80E00082E0FD292
:100EF000DFE806F00405060708090A0B00BF00BF7B
:100F000000BF00BF00BF00BF00BF48EA062804E0E2
:100F100006B0BDEC048BBDE8F08100BF102F1BD2E2
:100F2000DFE807F008090A0B0C0D0E0F1011121361
:100F30001415161700BF00BF00BF00BF00BF00BFE1
:100F400000BF00BF00BF00BF00BF00BF00BF00BFA9
:100F500000BF48EA071800E0DAE700BFCDF80480D8
:100F6000002C13DA204610F050FA41EC190BB0EEC9
:100F7000490AF0EE690A00F084FDB0EE408AF0EE16
:100F8000608A51EC180B10F011FA04B2200A8DF8A7
:100F90000F008DF8104055218DF811108DF81210AA
:100FA000290E8DF81310290C8DF81410290A8DF8CC
:100FB00015108DF8165000201B49087001A91B4818
:100FC00003F0FEF900BF184800780028FBD000BFEE
:100FD0009EE72DE9F0432DED048B85B005460E46C6
:100FE00014469846109F4FF0090900208DF808001C
:100FF0008DF8090008208DF80A00082D0FD2DFE8CF
:1010000005F00405060708090A0B00BF00BF00BF72
:1010100000BF00BF00BF00BF49EA05290AE005B0D4
:10102000BDEC048BBDE8F0830100002000640040AB
:1010300078ECFFFF00BF102E1BD2DFE806F0080996
:101040000A0B0C0D0E0F101112131415161700BFFA
:1010500000BF00BF00BF00BF00BF00BF00BF00BF98
:1010600000BF00BF00BF00BF00BF00BF49EA0619B4
:1010700000E0D4E700BFCDF80090002C13DA204642
:1010800010F0C3F941EC190BB0EE490AF0EE690A11
:1010900000F0F7FCB0EE408AF0EE608A51EC180BDD
:1010A00010F084F904B2200A8DF80B00E1B28DF83B
:1010B0000C104FEA18218DF80D1008F0FF018DF883
:1010C0000E10390E8DF80F10390C8DF81010390AEA
:1010D0008DF81110F9B28DF81210002090490870A7
:1010E0006946904803F06CF900BF8D4800780028ED
:1010F000FBD000BF93E72DE9F04186B004460D46D2
:1011000090461E460A2700208DF80C008DF80D0031
:1011100008208DF80E00082C0FD2DFE804F004053B
:10112000060708090A0B00BF00BF00BF00BF00BFD1
:1011300000BF00BF47EA042702E006B0BDE8F08127
:1011400000BF102D1AD2DFE805F01908090A0B0CB0
:101150000D0E0F1011121314151600BF00BF00BFA3
:1011600000BF00BF00BF00BF00BF00BF00BF00BF87
:1011700000BF00BF00BF47EA051700E0DDE700BF82
:1011800016B1012E00D0002601978DF80F808DF842
:10119000106055218DF811108DF812108DF8131074
:1011A0008DF814108DF815108DF8161000205C497C
:1011B000087001A95B4803F003F900BF58480078A4
:1011C0000028FBD000BFB8E770B586B004460D46D6
:1011D0000F2600208DF80C008DF80D0008208DF8EA
:1011E0000E00082C0FD2DFE804F0040506070809FA
:1011F0000A0B00BF00BF00BF00BF00BF00BF00BFA1
:1012000046EA042601E006B070BD00BF102D1AD2D8
:10121000DFE805F01908090A0B0C0D0E0F1011126A
:101220001314151600BF00BF00BF00BF00BF00BFF2
:1012300000BF00BF00BF00BF00BF00BF00BF00BFB6
:1012400046EA051600E0DEE700BF019655208DF85E
:101250000F0055218DF810108DF811108DF8121017
:101260008DF813108DF814108DF815108DF81610D8
:1012700000202B49087001A92A4803F0A1F800BFFB
:10128000274800780028FBD000BFBCE72DE9F041DB
:101290002DED048B04460D4616469FED230BB0EE54
:1012A000408AF0EE608A53EC182B9FED210B51EC35
:1012B000100B10F011F941EC190B10F077F807B290
:1012C00023463A4601210020FFF7A4FB53EC182BDC
:1012D0009FED170B51EC100B10F0FEF841EC190BC1
:1012E00010F064F807B22B463A4602210020FFF7BF
:1012F00091FB53EC182B9FED0E0B51EC100B10F0E3
:10130000EBF841EC190B10F051F807B233463A46AE
:1013100003210020FFF77EFBBDEC048BBDE8F081CC
:101320000100002000640040CDCCCCCCCCCCEC3F04
:10133000000000000088B3401FB50121202001F00B
:1013400042FD01A801F02BFF4FF47A700290532068
:10135000ADF804000020ADF80C00ADF806008DF8E3
:101360000E0001A9574801F0E6FE0122114655483A
:1013700002F082FB0121534802F092FB0121514807
:1013800001F062FF37208DF8000002208DF8010087
:101390008DF8020001208DF80300684600F0EDFF93
:1013A0001FBD0EB50121102001F00DFD684601F0B2
:1013B000F6FE5320ADF800004FF6FF7001900020BC
:1013C000ADF80800ADF8020069463F4801F0B3FEF1
:1013D00001213D4801F01AFF01213B4801F034FF93
:1013E0000EBD10B5394890ED000B51EC100B0FF00D
:1013F000DDFF10BD10B52DED028B00243248446A8C
:1014000033480068844212DB31490968601A0FF0E2
:10141000FCFF41EC180B2D4890ED000B53EC102B0A
:1014200051EC180B0FF07AFD284A03C218E0284847
:101430000068844214DA26490968611A4FF6FF727F
:1014400088180FF0E2FF41EC180B204890ED000BDC
:1014500053EC102B51EC180B0FF060FD1B4A03C22C
:101460001B480460BDEC028B10BD00201649486289
:101470009FED180B154880ED000B704710B5FFF776
:1014800090FF10BD15480068704710B514480068FB
:10149000401C1349086011480068401C0F4908604F
:1014A0000F4800680F490968884205DB00200C4995
:1014B000086001200C4908600121024802F0F0FA9E
:1014C00010BD00000014004000100040300000205B
:1014D0004400002000000000000000004000002048
:1014E00048000020380000203C00002010B54FF4D8
:1014F000A06000F03DFFFFF7C1FF06F0E2F8FEF745
:101500002DFF06F093FA0CF0BCFC09F0F8FA00F09D
:1015100080FD4FF47A7000F025FB00210846FFF7AC
:10152000A1F84FF47A7000F01DFB03220121002086
:10153000FFF7FBF8032202210020FFF7F6F8032251
:1015400011460020FFF7F1F84FF4FA7000F00AFBA3
:101550000023012211461846FFF7CDFD002301228A
:1015600002211846FFF7C7FD002301220321184678
:10157000FFF7C1FD642000F0F5FA00F0B7FB10BDE5
:101580002DED048B82B0FFF7B1FFFFF76EFF68E12E
:10159000B4480068401CB3490860052000F0E2FA36
:1015A000FFF728FFB04890ED002B9FEDB01BB1482E
:1015B00090ED000B06F0ABFA09F0C0FEB0EE408AE9
:1015C000F0EE608A9FEDAC0B53EC102B51EC180B36
:1015D0000FF082FFAA4A03C2A24800680A28D6DB9D
:1015E000A8480078012817D1A7480068401CA649E0
:1015F00008600846006805280EDD9FED9C0B9D489D
:1016000080ED000B9FED990B974880ED000B9F48F4
:101610000068401C9D490860002092490860142021
:10162000012181409A4A430942F8231000BF01205A
:10163000984981F86000682297480CF052FF95485D
:1016400090ED060B80ED0C0B90ED080B80ED0E0B72
:1016500090ED0A0B80ED100B00208E4981F86000A0
:101660001420012181404209920002F1E022C2F8D7
:10167000001100BF884890ED0C2BB0EE420AF0EE4E
:10168000620A90ED062BB0EE421AF0EE621A53ECAD
:10169000102B51EC110B10F02BF97F4AC2E912010B
:1016A000104690ED0E2BB0EE420AF0EE620A90ED7D
:1016B000082BB0EE421AF0EE621A53EC102B51ECEC
:1016C000110B10F015F9744AC2E91401104690ED9F
:1016D000102BB0EE420AF0EE620A90ED0A2BB0EE4B
:1016E000421AF0EE621A53EC102B51EC110B10F071
:1016F000FFF8694AC2E91601104690ED120B6748DF
:1017000080ED000B104690ED140B644880ED020B49
:10171000104690ED160B614880ED040B08F072FC4A
:101720005F4880ED000B9FED5F0B53EC102B90EDAD
:10173000000B51EC100B0FF0CFFE41EC180B8DEDB0
:10174000008B5AA20021084605F084FF534890ED13
:10175000043BB0EE432AF0EE632A90ED023BB0EE7C
:10176000431AF0EE631A90ED003BB0EE430AF0EE40
:10177000630A514951489FED523B06F09FFE524883
:1017800080ED000B9FED4E1B454890ED000B07F0E0
:1017900013F94E4880ED000B9FED4D0B53EC102BD1
:1017A000494890ED000B51EC100B0FF095FE41EC09
:1017B000180B0FF0FBFD0446234647A20021012031
:1017C00005F048FF9FED460B53EC102B3F4890ED82
:1017D000000B51EC100B0FF07FFE41EC180B8DED60
:1017E000008B41A20021022005F034FF1E4890ED3D
:1017F000000B51EC100B0FF085FB41EC190B9FED2A
:10180000380B53EC102B0FF067FE41EC180B8DEDED
:10181000008B37A20021032005F01CFF204890ED2B
:10182000000B1E4880ED060B00F074FC9FED0F0BC3
:101830001A4880ED040B80ED020B80ED000B11487F
:101840000078012805D12CA20021032005F002FF19
:1018500007E00C48007820B929A20021032005F0F8
:10186000F9FE95E678000020380100200000000015
:10187000000000003001002000000080C2A54C40A4
:1018800008010020100100201401002000010020A8
:1018900080E100E020040020B8030020E81A0020C6
:1018A000180200206666666666A64C405961773A63
:1018B000252E326600000000E8000020E000002035
:1018C0009A9999999999A93FC0000020C8000020D1
:1018D0000000000000408F4056583A256400000088
:1018E000F6285C8FC2A54C4056543A252E3266002D
:1018F00054543A252E326600534C414D00000000EE
:1019000052454D4F544500002DE9F04105460E4625
:1019100028460CF0C7FD07461627002406E0285D80
:10192000B04202D1E0B2BDE8F081641CBC42F6DBFB
:10193000FF20F8E72DE9F04105460E4628460CF059
:10194000B1FD07467C1E06E0285DB04202D1E0B240
:10195000BDE8F081641E002CF6DAFF20F8E710B530
:1019600002460B461478012102E0505C4440491CB9
:101970009942FADB04F07F0010BD000000B52DEDA8
:101980000A8B85B0B0EE408AF0EE608A9FED580B6E
:1019900053EC102B51EC180B0FF09EFD41EC1C0B7F
:1019A0008DED028B0298019053490198A1EB5000F4
:1019B00001909DED010B8DED020B9DED020B53ECA3
:1019C000102B51EC1C0B0FF087FD41EC1B0B9DED18
:1019D000020B53EC102B0FF07FFD41EC1A0B9FED27
:1019E000470B53EC102B0FF0ABFE41EC190B9DEDA8
:1019F000020B53EC102B0FF06FFDCDE902019DEDB2
:101A0000020B05B0BDEC0A8B00BD10B52DED048BAB
:101A1000B0EE409AF0EE609AB0EE418AF0EE618A44
:101A200053EC182B51EC190B0FF054FE06D2B0EE0C
:101A3000480AF0EE680ABDEC048B10BDB0EE490A0E
:101A4000F0EE690AF7E710B52DED048BB0EE409A81
:101A5000F0EE609AB0EE418AF0EE618A53EC182BFA
:101A600051EC190B0FF036FE06D2B0EE490AF0EE3B
:101A7000690ABDEC048B10BDB0EE480AF0EE680AAE
:101A8000F7E710B52DED028BB0EE408AF0EE608ADC
:101A90009FED1C0B53EC102B51EC180B0FF01AFEA2
:101AA00006D2B0EE480AF0EE680ABDEC028B10BD1B
:101AB00051EC180B0FF026FA41EC100BF5E710B5BE
:101AC0002DED028BB0EE408AF0EE608A9FED0D0B9B
:101AD00053EC102B51EC180B0FF0FCFD04D29FEDD2
:101AE0000B0BBDEC028B10BD9FED0A0BF9E700005C
:101AF000000000000000E03FDF59375F00000000F9
:101B00000000F83F0000000000000000000000009E
:101B10000000F03F000000000000F0BF00204FF088
:101B2000E02108617047002145F2082242434FF04E
:101B3000E0235A6100229A611A46126942F00102BA
:101B40001A6100BF4FF0E022116901F48032002ACF
:101B5000F8D04FF0E022126922F001024FF0E023AA
:101B60001A61704710B5044605E0A4F5FA744FF405
:101B7000FA70FFF7D8FFB4F5FA7FF6D82046FFF7E2
:101B8000D2FF10BD0021C0EBC00202EB42024FF0B9
:101B9000E0235A6100229A611A46126942F001025A
:101BA0001A6100BF4FF0E022116901F48032002A6F
:101BB000F8D04FF0E022126922F001024FF0E0234A
:101BC0001A617047704700001CB50121042001F024
:101BD000C7F807220B21B94800F007FF684600F05C
:101BE000C1FE4FF40060009002208DF80400032035
:101BF0008DF8050000208DF8060001208DF8070003
:101C00006946AE4800F066FE1CBD704700B595B051
:101C10000121880401F0D7F80121480501F0A0F85E
:101C2000A74802F02DF811A802F0DEF8A54811909F
:101C30000020ADF84800ADF84A004FF48060ADF8E0
:101C40004C000020ADF850000420ADF84E0011A962
:101C50009B4802F063F801224021994802F093F971
:101C60000121974802F0E2F80C208DF84000012095
:101C70008DF843008DF8410000208DF8420010A837
:101C800000F07BFB904800F0E3FB01A800F0ABFC08
:101C90004FF0006001908A48001D02908B4803902D
:101CA0000020049012200590002006904FF48060E0
:101CB00007900020089009904FF480700A904FF42C
:101CC00040300B9000200C900D900E900F9001A9C9
:101CD0007D4800F05FFC012210217B4800F021FDCF
:101CE0000121794800F090FC15B000BD10B5FFF758
:101CF0006BFFFFF78BFF10BD10B52DED028B734806
:101D000000787249497840EA0120C0F30A0070491E
:101D100008806E484078C0106C49897840EA4110CC
:101D2000C0F30A006A494880684880788011674992
:101D3000C97840EA81006549097940EA8120C0F309
:101D40000A00634988806148007940105F494979F9
:101D500040EAC110C0F30A005D49C8805B48407981
:101D6000C0F30110487259484079800908725748F9
:101D700080795649C97940EA012000B25449488126
:101D80005248007A5149497A40EA012001B250484C
:101D900081814E48807A4D49C97A40EA012001B2DA
:101DA0004B48C1814948017B494801744748417B00
:101DB000474841744548807B4449C97B40EA01203B
:101DC000434948820846007A012849D10020414908
:101DD00008703F484088A0F5806000EE100AB8EE19
:101DE000C00A3D4880ED000A39480088A0F58060AF
:101DF00000EE100AB8EEC00A384880ED000A3448F8
:101E00008088A0F5806000EE100AB8EEC00A344861
:101E100080ED000A334890ED000B334880ED000B55
:101E2000324890ED000B324880ED000B2A480068E4
:101E30000FF048FE2B4A03C2294890ED000AB1EE8C
:101E4000400A10EE100A0FF03DFE41EC180B9FED1A
:101E5000290B53EC102B0FF015F9244A03C21BE099
:101E60001C480078A8B91F4890ED000B1E4880ED73
:101E7000000B1E4890ED000B1D4880ED000B9FED00
:101E80001F0B184880ED000B9FED1C0B174880EDD1
:101E9000000B01200F490870BDEC028B10BD10B57E
:101EA0001849094800F05AFC012805D1154906488F
:101EB00000F07EFCFFF720FF10BD0000000802408C
:101EC00000480040A08601002860024088040020ED
:101ED000A204002010010020180100201C01002095
:101EE00020010020300100204001002038010020A6
:101EF000480100200000000000A084400000000015
:101F0000000000000088001000B597B001210820F3
:101F100000F026FF0121480400F055FF012148058B
:101F200000F01EFF07220521FA4800F05EFD07229F
:101F30000621F84800F059FD6020159002208DF828
:101F4000580000208DF85A008DF85B0003208DF8B2
:101F5000590015A9EF4800F0BDFC4FF4E130119095
:101F60000020ADF84800ADF84A00ADF84C000C2058
:101F7000ADF84E000020ADF8500011A9E64801F080
:101F8000CDFE01224021E44801F0FDFF0121E2489D
:101F900001F04CFF01A800F026FB4FF0006001901B
:101FA000DD48001D0290DD480390002004901620BB
:101FB0000590002006904FF4806007900020089064
:101FC00009904FF480700A9040020B9000200C9012
:101FD00001200D9000200E900F9001A9D04800F034
:101FE000D9FA01221021CE4800F09BFB0121CC48F8
:101FF00000F00AFB10208DF8400001208DF843000E
:102000008DF842008DF8410010A800F0B6F917B025
:1020100000BD10B5FFF778FF10BDF0B52DED088BB2
:1020200085B0B0EE408AF0EE608AB0EE419AF0EEF4
:10203000619AB0EE42AAF0EE62AA9FEDBA0B53ECA1
:10204000102B51EC180B0FF047FA41EC1B0B0FF063
:10205000ADF904469FEDB30B53EC102B51EC190B6B
:102060000FF03AFA41EC1B0B0FF0A0F905469FED7B
:10207000AF0B53EC102B51EC1A0B0FF02DFA41EC77
:102080001B0B0FF093F9064653208DF800004520F6
:102090008DF80E00E0B28DF80100200A8DF80200E4
:1020A000200C8DF80300200E8DF80400E8B28DF8A6
:1020B0000500280A8DF80600280C8DF80700280E68
:1020C0008DF80800F0B28DF80900300A8DF80A008A
:1020D000300C8DF80B00300E8DF80C000C210DF13A
:1020E0000100FFF73CFC8DF80D0000270CE01DF807
:1020F0000710894801F0C5FE00BF8021864801F025
:1021000070FF0028F9D07F1C0F2FF0DB05B0BDEC6D
:10211000088BF0BD10B52DED068B044694ED043B05
:10212000B0EE432AF0EE632A94ED023BB0EE431A80
:10213000F0EE631A94ED003BB0EE430AF0EE630A52
:1021400005F0FAFE94ED061BB0EE410AF0EE610ACE
:102150009FED781B53EC112B51EC100B0FF0BCF9D9
:1021600041EC180B754890ED0A0BB0EE409AF0EE7A
:10217000609A90ED0C0BB0EE40AAF0EE60AAB0EEC3
:10218000482AF0EE682AB0EE4A1AF0EE6A1AB0EE6B
:10219000490AF0EE690AFFF740FFBDEC068B10BD5F
:1021A0002DE9F0412DED088B05464FF00008002683
:1021B00053212846FFF7A8FB0446002C03DABDECA8
:1021C000088BBDE8F08104F10A00162830DA285C9B
:1021D00045282DD12919481C0821FFF7C0FB0746C7
:1021E00004F10900285CB84221D1201D285C0106B9
:1021F000E01C285C41EA0041A01C285C41EA002068
:10220000611C695C40EA010804F10800285C0106D1
:10221000E01D285C41EA0041A01D285C41EA002045
:10222000611D695C40EA010600204549086000BF65
:1022300040460FF0EAF841EC190B30460FF0E5F894
:1022400041EC180B9FED370B53EC102B51EC180B96
:102250000EF018FF41EC1B0B9FED3A0B53EC102BCB
:102260000EF010FF41EC1A0B9FED380B53EC102BC6
:102270000FF032F941EC180B36480078012811D1E3
:10228000354890ED000B354880ED000B344890ED5B
:10229000000B344880ED000B2F4880ED008B304858
:1022A00080ED009B00BF8AE770B505460C460BE049
:1022B00014F8011B284601F0E4FD00BF80212846E8
:1022C00001F08FFE0028F9D020780028F0D170BDF1
:1022D0000FB438B5044606A800902348009A059923
:1022E0000CF0A2F8002000901F492046FFF7DCFF09
:1022F00038BC5DF814FB10B51C49094800F02EFAF3
:10230000012806D10548FFF74BFF1849044800F0A3
:102310004FFA10BD000C024000440040B6040020FB
:10232000886002400000000000002440000000001F
:102330000000594000000080C2A54C40481A00200F
:102340001401002000000000008066404AD8124DB1
:10235000FB21094010010020380100204801002025
:102360003001002040010020CC0400200088002023
:1023700032490143324A1160704770B50021002391
:102380000F22C4781CB32E4C246804F4E064C4F516
:10239000E064C4F30721C1F10404E3B20A414478C4
:1023A0009C40E1B28478144021430C07210E254C57
:1023B00005786155047804F01F050124AC400578C8
:1023C0006D11AD0005F1E025C5F8004109E0047884
:1023D00004F01F050124AC401B4D0678761145F82A
:1023E000264070BD194A0A400243154B1B1F1A6054
:1023F000704739B1124A121D12680243104B1B1D5F
:102400001A6006E00E4A121D126882430C4B1B1D17
:102410001A607047042808D14FF0E021096941F0A3
:1024200004014FF0E022116107E04FF0E02109695B
:1024300021F004014FF0E022116170470000FA051D
:102440000CED00E000E400E080E100E080FFFF1F11
:10245000016821F00101016000210160416081609B
:10246000C160016121214161DB49884204D13D21E4
:10247000D94A103A91608CE0D7491831884205D189
:102480004FF47461D44A103A916082E0D2493031FD
:10249000884205D14FF47411CF4A103A916078E028
:1024A000CD494831884205D14FF07461CA4A103A8B
:1024B00091606EE0C8496031884204D1C749C64A7C
:1024C000103AD16065E0C4497831884204D1C449EA
:1024D000C14A103AD1605CE0BF499031884204D1D2
:1024E000C049BD4A103AD16053E0BB49A831884287
:1024F00005D14FF03D51B84A103AD16049E0BA4990
:10250000884204D13D21B84A083A116041E0B649F9
:102510001831884205D14FF47461B34A083A11600A
:1025200037E0B1493031884205D14FF47411AE4AD9
:10253000083A11602DE0AC494831884205D14FF08E
:102540007461A94A083A116023E0A74960318842C2
:1025500004D1A249A44A121F11601AE0A24978319D
:10256000884204D19E49A04A121F116011E09E4981
:102570009031884204D19B499B4A121F116008E0A8
:102580009949A831884204D14FF03D51964A121F13
:102590001160704710B500220268944B1A40CC6855
:1025A0000B6823434C6923438C692343CC69234341
:1025B0000C6A23434C6A23438C6A23434C6B2343AA
:1025C0008C6B23431A430260426922F00702D1E96F
:1025D0000B3423431A4342610B6943604B688360A9
:1025E0008B68C36010BD0021016041608160C160E3
:1025F000016141618161C161016241628162C162C7
:10260000016341638163704721B1026842F00102B6
:10261000026003E0026822F001020260704721B10B
:10262000026842F40042026003E0026822F40042C1
:102630000260704721B1026842F02002026003E0AC
:10264000026822F020020260704741607047014634
:10265000486880B2704722B1036843F400230360E6
:1026600003E0036823F4002303600161704721B194
:10267000026842F48022026003E0026822F48022B1
:10268000026070470AB1016100E0C1607047014615
:1026900000200A6802F400220AB1012000E00020B4
:1026A0007047014600200A6802F001020AB10120C9
:1026B00000E000207047014600204A6902F038001F
:1026C000704730B503460A4600200024464DAB4211
:1026D00002D24149103901E04349103902F0005556
:1026E0000DB14C6800E00C68414D2C4004EA020535
:1026F0000DB1012000E0002030BD02463A4B9A4265
:1027000002D23548103801E03748103801F0005344
:102710001BB1374B0B40C36002E0354B0B4083606D
:10272000704710B501F080034BB122B1436943F00B
:102730008003436103E0436923F080034361802900
:102740000BD02AB1036801F01E042343036004E0A8
:10275000036801F01E04A343036010BD70B5024678
:10276000002000240025204EB24202D21A4B103B1A
:1027700001E01D4B103B1F4E0E4036B11E2606EAEF
:10278000D124166806EA040502E0566906F08005C1
:1027900001F000560EB15C6800E01C68144E344035
:1027A00004EA010616B10DB1012000E0002070BD61
:1027B00002460D4B9A4202D20748103801E00A48FF
:1027C000103801F000531BB1094B0B40C36002E00D
:1027D000074B0B4083607047106002403D000020B3
:1027E000400F002000003D20106402403F801CF09C
:1027F0007D0F7D0F3C0F3C0F10B504468C48844282
:1028000008D10121084600F000FB0021012000F062
:10281000FCFA5EE08748844208D10121022000F0E2
:10282000F4FA0021022000F0F0FA52E082488442DB
:1028300008D10121042000F0E8FA0021042000F072
:10284000E4FA46E07D48844208D10121082000F0E6
:10285000DCFA0021082000F0D8FA3AE078488442F7
:1028600008D10121102000F0D0FA0021102000F042
:10287000CCFA2EE07348844208D10121202000F0D8
:10288000C4FA0021202000F0C0FA22E06E48844201
:1028900008D10121402000F0B8FA0021402000F0CA
:1028A000B4FA16E06948844208D10121802000F082
:1028B000ACFA0021802000F0A8FA0AE064488442C3
:1028C00007D10121801500F0A0FA0021A01500F029
:1028D0009CFA10BDF0B50A4600210023002400BF79
:1028E0003DE0012505FA01F3156805EA03049C4261
:1028F00034D105684F000326BE40B5430560157905
:102900004E00B5400668354305601579012D02D0AB
:102910001579022D16D185684F000326BE40B543B8
:10292000856055794E00B5408668354385604568B9
:1029300001268E40B5434560456896798E40B6B213
:1029400035434560C5684F000326BE40B543C560AA
:10295000D5794E00B540C6683543C560491C10297D
:10296000BFD3F0BD4FF6FF710160002101714171CD
:102970008171C171704708B54FF480320092009A9E
:102980000A430092009AC261C161009AC261C269A1
:102990000092C269009208BD0246002013690B40F4
:1029A0000BB1012000E0002070470146086980B2A9
:1029B00070470246002053690B400BB1012000E034
:1029C000002070470146486980B270470183704714
:1029D000418370470AB1018300E041837047416140
:1029E000704742694A4042617047F0B500230024B5
:1029F0004D07ED0E02FA05F3CE1000F1200555F853
:102A000026504E07F70E0F26BE40B543CF1000F1FB
:102A1000200646F82750CE1000F1200555F8265024
:102A200045EA0304CE1000F1200545F82640F0BD2C
:102A3000000002400004024000080240000C024076
:102A4000001002400014024000180240001C024026
:102A500000200240FA48006840F00100F849086090
:102A60000020F74908310860F5480068F54908403A
:102A7000F3490860F448091D0860081F006820F445
:102A80008020091F08600020ED490C310860704764
:102A90000021EB4A921C117011460870704710B566
:102AA00001460022002300204A11012A02D1E44CF1
:102AB000236808E0022A03D1E14C7034236802E065
:102AC000DF4C7434236801F01F02012494401C4041
:102AD0000CB1012000E0002010BD38B500200090AE
:102AE0000024002500BF3120FFF7D9FF05460098DC
:102AF000401C00900098B0F5A04F01D0002DF2D0FE
:102B00003120FFF7CCFF08B1012400E0002420466B
:102B100038BD01460020CA4A106820F0F80040EA9B
:102B2000C10010607047C949086070470021C44A5D
:102B3000703211701170012802D004280AD104E00B
:102B40000121BF4A7032117005E00521BC4A703284
:102B5000117000E000BF00BF7047BD4908607047BA
:102B600070B5049C41EA82150126C6EB530645EA7E
:102B70000645054345EA0465B14E361D356070BD16
:102B8000B24908667047820142EA0172AC4B843355
:102B90001A607047AD4988667047AC49C864704791
:102BA00002460020A64B0833186820F0EC6042EA89
:102BB00001031843A24B08331860704702460020F7
:102BC0009F4B0833186820F0784042EA010318430D
:102BD0009B4B08331860704701460020984A083222
:102BE000106820F0030008431060704794480830D4
:102BF000006800F00C00704701460020904A08323F
:102C0000106820F0F0000843106070470146002073
:102C10008B4A0832106820F4E05008431060704777
:102C200001460020864A0832106820F4604040EADD
:102C3000C10010607047F0B5002100220024022579
:102C4000002602237E4F08373F6807F00C0121B1B0
:102C5000042905D0082937D105E07E4F076036E00A
:102C60007D4F076033E0764F3F1D3F68C7F38056C6
:102C7000734F3F1D3F6807F03F036EB1764FB7FBC0
:102C8000F3F7DFF8BCC10CF1040CDCF800C0CCF3A6
:102C9000881C07FB0CF40CE06E4FB7FBF3F7DFF872
:102CA000A0C10CF1040CDCF800C0CCF3881C07FBBD
:102CB0000CF4634F3F1D3F68C7F301477F1C7D0045
:102CC000B4FBF5F7076002E0624F076000BF00BF8A
:102CD0005B4F08373F6807F0F00109095F4F7A5CE6
:102CE0000768D7404760564F08373F6807F4E05100
:102CF000890A5A4F7A5C4768D7408760504F083737
:102D00003F6807F46041490B544F7A5C4768D740ED
:102D1000C760F0BD002100F44072B2F5407F0AD1D7
:102D2000474A0832116821F4F8114D4A0240114314
:102D3000434A08321160424A70321268C0F30B03F2
:102D40001A433F4B70331A60704741494439086059
:102D500070473F49403908607047424908607047F2
:102D600039B1374A303212680243354B30331A607A
:102D700006E0334A303212688243314B30331A60F6
:102D8000704739B12E4A3432126802432C4B343327
:102D90001A6006E02A4A343212688243284B3433E0
:102DA0001A60704739B1264A383212680243244B00
:102DB00038331A6006E0224A383212688243204BC8
:102DC00038331A60704739B11D4A403212680243E5
:102DD0001B4B40331A6006E0194A403212688243A6
:102DE000174B40331A60704739B1154A44321268A4
:102DF0000243134B44331A6006E0114A443212680E
:102E000082430F4B44331A60704739B10C4A103279
:102E1000126802430A4B10331A6006E0084A103267
:102E200012688243064B10331A607047E1B1044ABE
:102E3000143212680243024B14331A6019E0000086
:102E400000380240FFFFF6FE103000240000474229
:102E5000800E47420024F40040787D01500100209C
:102E6000FFFCFF0F5C0147425B4A126882435A4BEA
:102E70001A60704739B1584A121D12680243564B06
:102E80001B1D1A6006E0544A121D12688243524B01
:102E90001B1D1A60704739B14F4A0C321268024349
:102EA0004D4B0C331A6006E04B4A0C3212688243D9
:102EB000494B0C331A60704739B1474A10321268D7
:102EC0000243454B10331A6006E0434A1032126841
:102ED0008243414B10331A60704739B13E4A3C324D
:102EE000126802433C4B3C331A6006E03A4A3C32DB
:102EF00012688243384B3C331A60704739B1364A06
:102F0000403212680243344B40331A6006E0324AC2
:102F1000403212688243304B40331A60704739B1F7
:102F20002D4A4432126802432B4B44331A6006E0A8
:102F3000294A443212688243274B44331A6070474F
:102F400039B1254A4C3212680243234B4C331A6084
:102F500006E0214A4C32126882431F4B4C331A6000
:102F6000704739B11C4A5032126802431A4B503331
:102F70001A6006E0184A503212688243164B5033EA
:102F80001A60704739B1144AD21F12780243124BAB
:102F9000DB1F1A7006E0104AD21F127882430E4BD4
:102FA000DB1F1A7070470C486030006840F080707A
:102FB000094960310860704701460020064A083A16
:102FC00012680A400AB1012000E00020704702495F
:102FD000891F0870704700001438024010B504467D
:102FE000FE48844208D101210846FFF765FF002111
:102FF0000120FFF761FF9DE0B4F1804F08D101216E
:103000000846FFF748FF00210120FFF744FF91E049
:10301000F348844208D101210220FFF73CFF002140
:103020000220FFF738FF85E0EE48844208D10121F5
:103030000420FFF730FF00210420FFF72CFF79E088
:10304000E948844208D101210820FFF724FF00212C
:103050000820FFF720FF6DE0E448844208D10121F9
:103060001020FFF718FF00211020FFF714FF61E088
:10307000DF48844208D101212020FFF70CFF002106
:103080002020FFF708FF55E0DA48844208D10121EB
:103090000220FFF711FF00210220FFF70DFF49E09A
:1030A000D548844209D101210804FFF705FF00211A
:1030B0004FF48030FFF700FF3CE0D048844209D154
:1030C00001214804FFF7F8FE00214FF40030FFF71C
:1030D000F3FE2FE0CA48844209D101218804FFF79A
:1030E000EBFE00214FF48020FFF7E6FE22E0C5480A
:1030F000844208D101214020FFF7CDFE002140206D
:10310000FFF7C9FE16E0C048844208D101218020A3
:10311000FFF7C1FE00218020FFF7BDFE0AE0BB489B
:10312000844207D101218015FFF7B5FE0021A015CB
:10313000FFF7B1FE10BD00220288A84B98420ED0C6
:10314000AC4B98420BD0B0F1804F08D0A44B9842C2
:1031500005D0A44B984202D0A34B984204D14FF61D
:103160008F731A404B881A43A04B984207D0A04B4C
:10317000984204D04FF6FF431A400B891A4302804D
:103180004B68C3620B880385944B984202D0994BDD
:10319000984201D18B7A03860123838270474FF0D6
:1031A000FF314160002101800181418081727047BF
:1031B0000185828270470A46002101884FF68F738D
:1031C000194011430180704741627047C1627047E6
:1031D0000146486A70470146088D704721B1028850
:1031E00042F00202028004E002884FF6FD731A40AA
:1031F0000280704721B1028842F00402028004E09C
:1032000002884FF6FB731A400280704721B1028892
:1032100042F08002028004E002884FF67F731A4079
:103220000280704702884FF6F7731A4002800288C6
:103230000A430280704702884FF6FF431A4002801B
:1032400002880A430280704721B1028842F00102DD
:10325000028004E002884FF6FE731A400280704735
:1032600070B5002400220023058C4FF6FE76354011
:103270000584028C8388048B4FF68F752C40B51E15
:103280002C400D882C43751E2A408D892A434D8879
:103290002A43524DA84202D0564DA84213D14FF6B0
:1032A000F7752A40CD892A434FF6FB752A408D8851
:1032B0002A434FF6FF652B404FF6FF552B400D8AF2
:1032C0002B434D8A2B43838004838D68456302849E
:1032D00070BD70B5002400220023058C4FF6EF76F8
:1032E00035400584028C8388048B48F6FF752C409A
:1032F0004FF6FF452C400D884FF6FF7606EA052570
:103300002C434FF6DF752A408D8906EA05152A43BE
:103310004D8806EA05152A43304DA84202D0354DA6
:10332000A8421DD14FF67F752A40CD894FF6FF7612
:1033300006EA05152A434FF6BF752A408D8806EA2E
:1033400005152A434FF6FF352B404FF2FF752B40F2
:103350000D8A06EA85052B434D8A06EA85052B432F
:10336000838004838D688563028470BD70B50024FA
:1033700000220023058C4FF6FF6635400584028C41
:103380008388848B4FF68F752C404FF6FC752C404C
:103390000D882C434FF6FF552A408D894FF6FF7656
:1033A00006EA05252A434D8806EA05252A430B4DE2
:1033B000A84202D00F4DA84238D14FF2FF752A40E3
:1033C000CD894FF6FF7606EA05252A434FF6FF35ED
:1033D0002A408D8806EA05252A4319E000000140AD
:1033E0000004004000080040000C004000100040B5
:1033F000001400400004014000400140004401402E
:103400000048014000180040001C0040002000401F
:103410004EF6FF752B404DF6FF752B400D8A06EAE0
:1034200005152B434D8A06EA05152B4383808483BB
:103430008D68C563028470BD70B50022002300242E
:10344000058C4EF6FF7635400584038C8488828B8C
:1034500048F6FF752A404FF6FF452A400D884FF683
:10346000FF7606EA05252A434DF6FF752B408D8928
:1034700006EA05352B434D8806EA05352B43FE4DFC
:10348000A84202D0FD4DA84208D14BF6FF752C4052
:103490000D8A4FF6FF7606EA85152C4384808283D9
:1034A0008D680564038470BD0021018041808180A6
:1034B00081608181C18101824182704770B503467C
:1034C000002000241846183001258D40ACB21D8C18
:1034D000A5431D8409B108290AD100EB61000568E4
:1034E0004FF68F76354005600568154305600FE09F
:1034F0000D1FC5F34E052844056848F6FF76354094
:10350000056005684FF6FF7606EA0226354305603A
:1035100070BD4163704781637047C1637047016448
:1035200070470A460021018B4FF68F7319401143F3
:10353000018370470A460021018B48F6FF7319404A
:103540004FF6FF7303EA02231943018370470A46CB
:103550000021818B4FF68F7319401143818370478F
:103560000A460021818B48F6FF7319404FF6FF731E
:1035700003EA02231943818370470A460021018B25
:103580004FF6F77319401143018370470A46002133
:10359000018B4FF2FF7319404FF6FF7303EA0223CA
:1035A0001943018370470A460021818B4FF6F77358
:1035B00019401143818370470A460021818B4FF2E5
:1035C000FF7319404FF6FF7303EA02231943818307
:1035D00070470A460021018B4FF6FB7319401143D7
:1035E000018370470A460021018B4FF6FF331940D3
:1035F0004FF6FF7303EA02231943018370470A461B
:103600000021818B4FF6FB73194011438183704772
:103610000A460021818B4FF6FF3319404FF6FF73A6
:1036200003EA02231943818370470A460021018B74
:103630004FF67F7319401143018370470A460021FA
:10364000018BC1F30E014FF6FF7303EA0223194306
:10365000018370470A460021818B4FF67F73194022
:103660001143818370470A460021818BC1F30E010B
:103670004FF6FF7303EA02231943818370470A461A
:103680000021018C4FF6FD731940114301847047EE
:103690000A460021018C4FF6F7731940114301844B
:1036A00070470A460021018C4FF6DF7319404FF630
:1036B000FF7303EA02131943018470470A4600218D
:1036C000018C4FF67F7319404FF6FF7303EA021324
:1036D0001943018470470A460021018C4FF6FF53BD
:1036E00019404FF6FF7303EA022319430184704720
:1036F0000A460021018C4FF2FF7319404FF6FF7309
:1037000003EA02231943018470470A460021018C11
:103710004DF6FF7319404FF6FF7303EA0233194366
:103720000184704730B5002301248C40A3B2048C7F
:103730009C430484048C02FA01F5ADB22C4304844A
:1037400030BD30B5002304248C40A3B2048C9C43CC
:103750000484048C02FA01F5ADB22C43048430BD1C
:10376000828B4FF2FF331A408283828B4FF6FF73B6
:1037700003EA01231A4382837047F0B50C461546CD
:10378000002100220026078C4EF6FF7C07EA0C077A
:103790000784818B028C4FF6FF7707EA043640F6E8
:1037A000FF4739404FF6FF7707EA052739434FF6C1
:1037B000FF7707EA0337394345F6FF773A4046F487
:1037C00080573A4381830284F0BD828B4FF6F373B6
:1037D0001A408283828B0A4382837047F0B50C467D
:1037E0001546002100220026078C4FF6FF6C07EAE1
:1037F0000C070784818B028C4FF6FF7707EA0426BB
:103800004FF60C7739404FF6FF7707EA03172F433F
:1038100039434FF2FF573A4046F480773A43818369
:103820000284F0BD028B4FF2FF331A400283028BF9
:103830004FF6FF7303EA01231A4302837047F0B582
:103840000C461546002100220026078C4FF6EF7C1F
:1038500007EA0C070784018B028C4FF6FF7707EA13
:10386000041640F6FF4739404FF6FF7707EA033763
:1038700039434FF6FF7703E00000014000040140A8
:1038800007EA052739434FF65F773A4046F01007BD
:103890003A4301830284F0BD028B4FF6F3731A4062
:1038A0000283028B0A4302837047F0B50C4615462B
:1038B00000210022068C4FF6FE773E400684018BE5
:1038C000028C4FF60C7631407E1C06EA03162E431E
:1038D00031434FF6F576324044F00106324301831E
:1038E0000284F0BD70B505460C46208850B9238986
:1038F000A28861882846FFF7D8FFE1882846FFF7AD
:10390000CBFF25E0208804280AD12389A28861887A
:103910002846FFF794FFE1882846FFF783FF17E06A
:10392000208808280AD12389A28861882846FFF7C1
:1039300055FFE1882846FFF748FF09E02389A28860
:1039400061882846FFF719FFE1882846FFF708FF3E
:1039500070BD002101804180012181800021C18052
:10396000018170472DE9F04105460C4600260127EC
:10397000608808B9022600E00026A088012801D14D
:10398000022700E001272088A0B92389A288618846
:103990002846FFF78AFFE1882846FFF77DFF238945
:1039A0003A4631462846FFF74AFFE1882846FFF7A6
:1039B00039FF13E02389A28861882846FFF73FFF7B
:1039C000E1882846FFF72EFF23893A4631462846EC
:1039D000FFF76BFFE1882846FFF75EFFBDE8F08147
:1039E0000146486B70470146886B70470146C86BBB
:1039F00070470146086C70470A884B881A438B88C9
:103A00001A43CB881A430B891A434B891A438B8973
:103A10001A43A0F844207047002101804180818032
:103A2000C180018141818181704731B1B0F844206A
:103A300042F40042A0F8442005E0B0F84420C2F36C
:103A40000E02A0F84420704721B1828842F004029F
:103A5000828004E082884FF6FB731A4082807047B0
:103A600021B1828842F00102828004E082884FF610
:103A7000FE731A40828070471AB183890B43838199
:103A800002E083898B4383817047818270470246BD
:103A90000020138A0B400BB1012000E0002070478A
:103AA000CA430282704730B502460020002300243A
:103AB000158A05EA0103958905EA010413B10CB1E1
:103AC000012000E0002030BDCA430282704741EA75
:103AD0000203A0F8483070471AB183890B438381F1
:103AE00002E083898B438381704721B1828842F051
:103AF0000802828004E082884FF6F7731A408280C1
:103B0000704701894FF6F8721140018170470A46EB
:103B1000002101894FF68F731940114301817047CD
:103B200030B504460D4629462046FFF7F0FF2089B0
:103B300040F00700208130BD2DE9F04104460D46DC
:103B400016461F46602D06D13B46012231462046CF
:103B5000FFF775FE05E03B46012231462046FFF7A0
:103B6000A4FE29462046FFF7D2FF208940F0070037
:103B70002081BDE8F08130B50C4600210189C9B231
:103B80004FF6FF7505EA03251543254329430181B7
:103B900030BD2DE9F04105460E46174698460024F3
:103BA00043463A4631462846FFF7E5FF2C894FF653
:103BB000F870044044F007044FF68F70044044F05E
:103BC00070042C81BDE8F081F0B504460D46164620
:103BD0001F463B46324629462046FFF7CCFF208948
:103BE00040F480402081F0BD82884FF68F731A40E8
:103BF000828082880A438280704702894FF6F87378
:103C00001A40028102890A430281704702894FF6F5
:103C10007F731A40028102890A4302817047F0B51E
:103C20000C4615461E460021002200230189028B06
:103C3000038C4FF6F877394021434FF6FC473A4062
:103C400040F201173A434FF6DD773B404FF6FF77DE
:103C500007EA06172F433B43018102830384F0BD2B
:103C600021B1828842F08002828004E082884FF68F
:103C70007F731A4082807047A0F850107047000090
:103C800010B50446F748844208D101211020FFF7FF
:103C900013F900211020FFF70FF93EE0F2488442AB
:103CA00009D101214804FFF7F6F800214FF4003054
:103CB000FFF7F1F831E0ED48844209D10121880491
:103CC000FFF7E9F800214FF48020FFF7E4F824E043
:103CD000E748844209D10121C804FFF7DCF800213C
:103CE0004FF40020FFF7D7F817E0E248844209D1EB
:103CF00001210805FFF7CFF800214FF48010FFF7EE
:103D0000CAF80AE0DC48844207D101212020FFF7ED
:103D1000D3F800212020FFF7CFF810BD2DE9FF4791
:103D200005460E460024A14600BFA046B08900B15A
:103D300000BF2C8A24F44054F08804432C82AC89C0
:103D400041F20C608443B08831890843718908438B
:103D50000443AC81AC8A24F44074B0890443AC823F
:103D60006846FEF768FFBF48854202D0C2488542D8
:103D700002D1DDF80C9001E0DDF80890A88900F48C
:103D8000004040B109EBC90000EB0910316849005F
:103D9000B0FBF1F707E009EBC90000EB091031684F
:103DA0008900B0FBF1F76420B7FBF0F004012009B3
:103DB000642101FB1078A88900F4004040B1322052
:103DC00000EBC800B0FBF1F000F00700044308E08E
:103DD000322000EB08106421B0FBF1F000F00F007E
:103DE00004432C81BDE8FF874FF416510160002188
:103DF0008180C18001810C21418100218181704736
:103E000010B502460020108A20F470600B884C88A0
:103E100023438C882343CC8823431843108210BD4E
:103E20000021018041808180C180704721B1828959
:103E300042F40052828104E082894DF6FF731A40F9
:103E400082817047028B02F47F420283028B0A4315
:103E50000283704721B1828942F40042828103E0EB
:103E60008289C2F30E028281704721B1828A42F4B4
:103E70000062828204E0828A4FF2FF731A408282DB
:103E80007047C1F308028280704701468888C0F3FA
:103E900008007047028A4FF6F0731A400282028AC5
:103EA0000A430282704721B1828942F00202828174
:103EB00004E082894FF6FD731A408281704782893F
:103EC0004FF2FF731A40828182890A4382817047D0
:103ED000028A4FF6DF731A400282028A0A43028284
:103EE000704721B1028A42F48042028204E0028AD1
:103EF0004BF6FF731A4002827047818941F001013D
:103F00008181704721B1828A42F00802828204E0F6
:103F1000828A4FF6F7731A4082827047028BD2B2C0
:103F20000283028B42EA01220283704721B1828A16
:103F300042F02002828204E0828A4FF6DF731A4048
:103F40008282704721B1828A42F01002828204E0AC
:103F5000828A4FF6EF731A4082827047828A4FF648
:103F6000FB731A408282828A0A438282704721B19F
:103F7000828A42F00202828204E0828A4FF6FD7356
:103F80001A40828270471AB1838A0B43838202E00F
:103F9000838A8B4383827047F0B503460024002652
:103FA0000025002040F66A17B94200D100BF18462C
:103FB000C1F3421401F01F06012707FA06F5012C90
:103FC00001D10C3004E0022C01D1103000E014309B
:103FD0001AB107682F43076002E00768AF43076024
:103FE000F0BD02460020B1F5007F00D100BF13886C
:103FF0000B400BB1012000E00020704701F400727B
:10400000B2F5007F00D100BFCA430280704770B58F
:104010000246002400230025002040F66A16B14223
:1040200000D100BFC1F3421501F01F03012606FABB
:1040300003F3012D02D19689334006E0022D02D10F
:10404000168A334001E0968A33400C12012606FAA4
:1040500004F41688344013B10CB1012000E00020B4
:1040600070BD0000001001400044004000480040C6
:10407000004C0040005000400014014010B50022E8
:10408000002340F66A14A14200D100BF0A120124A5
:104090009440A3B2DC43048010BD000010B5044678
:1040A000FE48844209D101214806FEF7F4FE0021B2
:1040B0004FF00070FEF7EFFE08E001218806FEF7E2
:1040C000EAFE00214FF08060FEF7E5FE10BD30B53E
:1040D000024600200023146824F0020414601468CF
:1040E00044F00104146000E05B1C546804F0010417
:1040F0001CB94FF6FF74A342F6D1546804F00104D2
:104100000CB900206CE08C79012C04D1146844F0C7
:104110008004146003E0146824F080041460CC79F7
:10412000012C04D1146844F04004146003E01468C6
:1041300024F0400414600C7A012C04D1146844F07B
:104140002004146003E0146824F0200414604C7A06
:10415000012C04D1146844F01004146003E01468C6
:1041600024F0100414608C7A012C04D1146844F0FB
:104170000804146003E0146824F008041460CC7A86
:10418000012C04D1146844F00404146003E01468A2
:1041900024F0040414608C78A407CD7844EA056404
:1041A0000D7944EA05444D7944EA05540D886D1EA5
:1041B0002C43D461146824F001041460002300E04F
:1041C0005B1C546804F001041CB14FF6FF74A34259
:1041D000F6D1546804F001040CB1002000E0012085
:1041E00030BD10B50021837A012202FA03F1AC4AF6
:1041F000126842F00102AA4B1A60A94A1C321268E6
:104200008A43A74B1C331A60027BCAB9A44A0C32FA
:1042100012688A43A24B0C331A604288C38842EA70
:1042200003439F4A4032847A42F8343002888388BC
:1042300042EA03439A4A4032847A02EBC402536052
:10424000027B012A19D1964A0C3212680A43944B18
:104250000C331A604288038842EA0343904A403292
:10426000847A42F83430C288838842EA03438C4A15
:104270004032847A02EBC4025360C27A3AB9884A67
:10428000121D12688A43864B1B1D1A6006E0844A81
:10429000121D12680A43824B1B1D1A60028932B933
:1042A0007F4A143212688A437D4B14331A600289A4
:1042B000012A06D17A4A143212680A43784B143321
:1042C0001A60427B012A06D1754A1C3212680A43E1
:1042D000734B1C331A60724A126822F00102704B51
:1042E0001A6010BD00218171C17101724172817229
:1042F000C1728170C17003210171022141710121DC
:10430000018070476649096841F00101644A116003
:104310001146096843F60E729143614A11601146D5
:10432000096841EA002111601146096821F0010184
:104330001160704721B1026842F48032026003E0EC
:10434000026822F4803202607047E1B1026842F0F4
:10435000800202604FF4C272125842F480734FF42C
:10436000C27213504FF4CA72125842F480734FF461
:10437000CA7213504FF4D272125842F480734FF441
:10438000D27213501BE0026822F0800202604FF4E8
:10439000C272125822F480734FF4C27213504FF459
:1043A000CA72125822F480734FF4CA7213504FF439
:1043B000D272125822F480734FF4D27213507047A5
:1043C00010B502460020936803F08063B3F1806F5C
:1043D00000D110E0936803F00063B3F1006F01D1E6
:1043E000012008E0936803F08053B3F1805F01D1AE
:1043F000022000E00420042879D002F5C07303EB0A
:1044000000131B6803F0010402F5C07303EB0013F3
:104410001C600B7A7BB94B7A0C8843EA445302F553
:10442000C07404EB00142468234302F5C07404EB49
:104430000014236010E00B7A4C6843EAC4034C7A02
:10444000234302F5C07404EB00142468234302F5EF
:10445000C07404EB001423608B7A03F00F038B729B
:1044600002F5C07303EB00135B6823F00F0402F541
:10447000C07303EB00135C6002F5C07303EB001321
:104480005B688C7A234302F5C07404EB001463600C
:104490008B7B1C064B7B44EA034403E00064004032
:1044A000006600400B7B44EA0323CC7A234302F5E9
:1044B000C07404EB0014A3608B7C1C064B7C44EAA4
:1044C00003440B7C44EA0323CC7B234302F5C074F2
:1044D00004EB0014E36002F5C07303EB00131B68E8
:1044E00043F0010402F5C07303EB00131C6010BD20
:1044F00010B50246002321B1012907D002290FD1AE
:1045000009E09068F94C00EA04030BE09068F84C6D
:1045100000EA040306E09068F64C00EA040301E0B8
:10452000002300BF00BFF44C181BA34216D007DCC9
:1045300083B16FF08060184470B1022818D111E087
:10454000B0F5007F10D0ED4C204448B1B0F5003FED
:104550000ED10BE002230DE000230BE0002309E065
:10456000002307E0012305E0012303E0012301E02C
:10457000002300BF00BFD8B210BD21B1012907D070
:1045800002290FD109E0826842F0800282600AE0CD
:10459000826842F40042826005E0826842F40002D0
:1045A000826000E000BF00BF704710B500F5D8730F
:1045B00003EB01131B6803F004031372137A53B95E
:1045C00000F5D87303EB01131B6840F2FF7404EA93
:1045D0005353136009E000F5D87303EB01131B6814
:1045E0006FF0604404EAD303536000F5D87303EB23
:1045F00001131B6803F00203537200F5D87303EB39
:1046000001135B6803F00F03937200F5D87303EB9B
:1046100001135B681B0AD37400F5D87303EB011315
:104620009B68D37200F5D87303EB01139B681C0AD7
:10463000147300F5D87303EB01139B681C0C5473BF
:1046400000F5D87303EB01139B681B0E937300F501
:10465000D87303EB0113DB68D37300F5D87303EB56
:104660000113DB681C0A147400F5D87303EB011303
:10467000DB681C0C547400F5D87303EB0113DB6882
:104680001B0E937421B9C36843F02003C36003E099
:10469000036943F02003036110BD21B9C26842F0F1
:1046A0002002C26003E0026942F02002026170470A
:1046B0000246002019B9D36803F0030006E001297F
:1046C00003D1136903F0030000E00020704710B528
:1046D00002460B4600204FF6FF71BBB9146824F068
:1046E000020444F00104146000E0491E546804F020
:1046F0000304012C01D00029F7D1546804F003040D
:10470000012C01D0002032E0012030E0012B13D138
:10471000146824F00304146000E0491E546804F097
:1047200003040CB10029F8D1546804F003040CB15F
:1047300000201CE001201AE0022B17D1146824F09D
:10474000010444F00204146000E0491E546804F0BF
:104750000304022C01D00029F7D1546804F00304AB
:10476000022C01D0002002E0012000E0002010BD5A
:10477000014600200A6822F0010242F002020A60AB
:104780004A6802F00302022A00D101207047014664
:104790004FF6FF7200200B6823F002030B6000E06D
:1047A000521E4B6803F00203022B01D1002AF7D1FD
:1047B0004B6803F00203022B00D001207047014632
:1047C00000208A6902F070007047014600208A6963
:1047D000100E7047014600208A69C2F307407047F7
:1047E0001AB143690B43436102E043698B43436160
:1047F000704710B50246002001F4700343B193697D
:10480000C1F3130423400BB101202DE000202BE065
:1048100001F0807343B15368C1F3130423400BB11B
:10482000012021E000201FE001F0006343B1936804
:10483000C1F3130423400BB1012015E0002013E065
:1048400001F0007343B1D368C1F3130423400BB1EB
:10485000012009E0002007E01369C1F3130423409D
:104860000BB1012000E0002010BD0022244B994232
:1048700002D10023836111E0C1F3130201F0007340
:104880000BB1C2600AE001F080630BB1026105E088
:1048900001F000630BB1826000E0426070470246A5
:1048A000002002EA01030BB1012000E00020704764
:1048B00070B504460D46002660692840002872D075
:1048C000B5F5807F69D01DDC082D42D006DC012DB6
:1048D0002DD0022D31D0042D7FD134E0102D3ED0CB
:1048E000202D42D0402D78D145E000000300000487
:1048F0000003000800000310000100080001FFF79A
:104900007000F030B5F5004F61D009DCB5F5007FDF
:104910004AD0B5F5806F4DD0B5F5006F5DD150E050
:10492000B5F5803F2DD0B5F5003F56D12FE0A068FA
:104930005549FFF7B4FF064651E0E0680321FFF751
:10494000AEFF06464BE0E0680821FFF7A8FF0646E9
:1049500045E0E0681021FFF7A2FF06463FE020692E
:104960000321FFF79CFF064639E020690821FFF785
:1049700096FF064633E020691021FFF790FF0646B8
:104980002DE060680821FFF78AFF064627E060688F
:104990001021FFF784FF064621E0A0690121FFF7FF
:1049A0007EFF06461BE01BE0A0690221FFF777FFB0
:1049B000064614E0A0690421FFF771FF06460EE0E9
:1049C0000BE0A0697021FFF76AFF064607E0606808
:1049D0000421FFF764FF064601E0002600BF00E067
:1049E0000026304670BDB1F5007F3AD00FDC20299B
:1049F00028D006DC01291CD004291DD0082940D16B
:104A00001DE0402921D0B1F5807F3AD126E0B1F5F3
:104A1000004F31D006DCB1F5806F25D0B1F5006FC5
:104A20002FD124E0B1F5803F12D0B1F5003F28D15D
:104A300011E0154A826025E00822C26022E01022BF
:104A4000C2601FE0082202611CE01022026119E02E
:104A50000822426016E01022426013E00422426005
:104A600010E0042242600DE0042242600AE00022CD
:104A700082610422426005E00022826104224260D9
:104A800000E000BF00BF7047010101009A4880218B
:104A900002E0491E002204C00029FAD1974A984B2F
:104AA0001A600022974B1A807047704710B5044671
:104AB000204600F081F910BD10B50446204600F0F4
:104AC0007CF910BD10B500F079F910BD10B50446A1
:104AD000204600F074F910BD10B500F071F910BD5A
:104AE00070B5044610460026051F28462E60051F97
:104AF00028462E604FF01536051F28462E604FF0D1
:104B00001436051F28462E604FF01336051F284621
:104B10002E604FF01236051F28462E604FF01136DA
:104B2000051F28462E604FF01036051F28462E60C0
:104B30004FF00936051F28462E604FF00836051F36
:104B400028462E604FF00736051F28462E604FF08E
:104B50000636051F28462E604FF00536051F2846ED
:104B60002E604FF00436051F28462E604FF00336A6
:104B7000051F28462E604FF00236051F28462E607E
:104B80007610051F28462E600026051F28462E6039
:104B90004FF080750560051F28462C60B61E051F66
:104BA00028462E604FF01236051F28462E604FF023
:104BB0000336051F28462E604FF00236051F284693
:104BC0002E607610051F28462E60051F2846296096
:104BD0004FF03136051F28462E604FF03036051F46
:104BE00028462E604FF02936051F28462E604FF0CC
:104BF0002836051F28462E604FF02736051F284609
:104C00002E604FF02636051F28462E604FF02536C1
:104C1000051F28462E604FF02436051F28462E60BB
:104C20004FF02336051F28462E604FF02236051F11
:104C300028462E604FF02136051F28462E604FF083
:104C40002036051F28462E604FF01936051F2846CE
:104C50002E604FF01836051F28462E604FF017368D
:104C6000051F28462E604FF01636051F28462E6079
:104C70004FF01136051F28462E604FF01036051FE5
:104C800028462E604FF00936051F28462E604FF04B
:104C90000836051F28462E604FF00736051F2846A8
:104CA0002E604FF00636051F28462E604FF0053661
:104CB000051F28462E604FF00436051F28462E603B
:104CC00070BD10B500F07DF810BD10B5044620464B
:104CD00000F078F810BD10B500F075F809480088AC
:104CE000401C0849088008460088642803D3002037
:104CF000088002F07FFA10BD300500202C0700204C
:104D00006001002064010020EFF3108072B670474C
:104D100080F31088704720484FF0FF010170002099
:104D200080F309881D48012101701D484FF0805112
:104D3000016062B6FEE71A484FF08051016070478B
:104D400017484FF080510160704772B6EFF3098049
:104D500040B1403880EC108A203880E8F00F1149CB
:104D60000968086000B5104880475DF804EB0F48FB
:104D70000F490A7802700B480E490A6802601068F1
:104D800090E8F00F203090EC108A403080F30988D2
:104D90004EF0040E62B6704722ED00E08E01002056
:104DA00004ED00E094010020C34C000883010020C2
:104DB000840100209C0100207047704770477047B5
:104DC00070477047704770470146002002E0491C59
:104DD000421CD0B20A78002AF9D170472DE9F0417F
:104DE00005460E4614460027FE48007820B11120E3
:104DF00020700020BDE8F0812878012808D0022822
:104E000007D0032802D0042804D100E000BF00BF6F
:104E100000BF03E0012020700020EBE700BFFFF798
:104E200073FF0746686930603068FFF7CDFF804642
:104E30003846FFF76DFF002020704046DAE72DE985
:104E4000F04105460E4614460027E648007818B1A2
:104E500012202070BDE8F0812878012808D00228AF
:104E600007D0032802D0042804D100E000BF00BF0F
:104E700000BF02E001202070ECE700BFFFF744FF15
:104E800007466E613846FFF743FF0020207000BFE1
:104E9000E0E7002400BF02E0C82001F07FFED24816
:104EA00000780028F8D0D14800686421B0FBF1F008
:104EB000CE4908600846006828B90020CC4908702F
:104EC000FF2001F0A4FD00BFFFF71EFF0446C94804
:104ED0000068C94908600020C64908602046FFF7FD
:104EE00017FFC5480068C1490968B0FBF1F0C0F17F
:104EF0006400BF490870FFF7EFFD642001F04EFE2B
:104F0000E2E700B587B0032000218022BB4BCDE94A
:104F10000132CDE903104FF6FE703E23B84A0090EF
:104F2000AFF2910001F090FB06AAB6A13E2001F07D
:104F3000F0FC07B000BD002400BF00BFFFF7E4FE97
:104F40000446AC480068401CAA4908602046FFF7A8
:104F5000DFFEFFF7B7FDF1E700B587B003200021C2
:104F60008022AC4BCDE90132CDE903104FF6FF7042
:104F70003F23A94A0090AFF2410001F065FB06AA69
:104F8000A6A13F2001F0C5FC07B000BD04E000224F
:104F900000F8012B4A1E91B20029F8D1704770B574
:104FA000F021A248FFF7F2FF002411E0601C85B257
:104FB00004EB44009D4901EBC00305EB450001EB08
:104FC000C006002018705E6099A05861601C84B211
:104FD000092CEBD304EB4400944901EBC0030020FF
:104FE0001870586092A0586108469249086070BDD8
:104FF00070B54FF4E7619048FFF7C8FF4FF4807138
:105000008E48FFF7C3FF002413E0601CC5B2C4EB59
:10501000C40000EB4000884901EB8003C5EBC500EC
:1050200000EB400001EB80065E6181A0D864601C4B
:10503000C4B2152CE9D3C4EBC40000EB40007E4998
:1050400001EB80030020586179A0D86400207C49DE
:10505000086079487B49086070BD00217A4A117068
:10506000002004E00021794A1154411CC8B20828EC
:10507000F8D30021764A1170764A1170764A116091
:10508000764A1160704700207549086055490870DC
:10509000744908707449087074490870744908604C
:1050A0005449086054490860504908604E490870E6
:1050B000704710B5FFF7EAFCFFF7E5FFFFF7CDFFFC
:1050C000FFF796FFFFF76BFF00F0ECFE00F0DDFF4F
:1050D000FFF742FFFFF715FF02F0E6F8FFF7E5FCE8
:1050E00010BD62480078012808D13E480078FF28AA
:1050F00004D23C480078401C3A49087070475D492A
:10510000514A1278885C5149095C5A4A515C01EB5A
:10511000C001504A1170704710B500245348007800
:10512000012830D1FFF7F0FD04462E48007820B169
:105130002C480078401E2B4908702A480078F8B99E
:1051400048480078E0B9FFF7DAFF3C484149097860
:1051500050F82100404908603E4800783C490978F1
:1051600088420DD03C480068806B401C3A49096871
:1051700088633F480068401C3D490860FFF7E0FD38
:105180002046FFF7C5FD10BD10B500243748007854
:10519000012811D1FFF7B8FD04461248007840B944
:1051A00030480078FF2804D22E480078401C2D4952
:1051B00008702046FFF7ACFD10BD10B50024FFF7C6
:1051C000A3FD04460748007850B92648007838B94E
:1051D000FFF795FF19481F49097850F821004BE067
:1051E00060E00000810100208001002078010020A3
:1051F00074010020900100207C0100207008002034
:105200006C0A002075432F4F532D49492053746178
:1052100074000000700A00206C0C002075432F4FB2
:10522000532D49492049646C650000003007002077
:105230003F0000006C010020700D0020700C002069
:10524000A001002098010020850100208601002097
:1052500083010020840100209C0100209401002093
:10526000AC010020820100208F0100208E0100206F
:1052700068010020B41B0108FE490860FE48007860
:10528000FE49097888420DD0FA480068806B401CBE
:10529000F84909688863FA480068401CF8490860C2
:1052A000FFF749FD2046FFF733FD10BD10B5002480
:1052B000F4480078012821D1FFF726FD0446F24882
:1052C0000078C0B1F0480078401EEF4908700846E9
:1052D000007860B9ED48007828B92046FFF718FD3E
:1052E000FFF76BFF0AE02046FFF712FD06E02046BD
:1052F000FFF70EFD02E02046FFF70AFD10BD10B5D6
:10530000E048007890B9FFF7FAFEDB480078DB4907
:105310000870DF48D849097850F82100D54908605D
:1053200008460068DB490860FFF7F5FC10BD10B5C2
:105330000024022001F032FCFFF7E6FC04460020C6
:10534000D54908602046FFF7E3FC642001F026FC05
:10535000FFF7DAFC0446D0480068D0490860012015
:10536000CF4908702046FFF7D3FC10BD70B500266A
:10537000FFF7B1FCFFF7C8FC0646CA480068401CAE
:10538000C84908603046FFF7C3FCBE4800780128D2
:1053900053D1C548007820B1012804D0022809D192
:1053A00003E001250BE0002509E001250120BE49AD
:1053B000087004E001250020BB49087000BF00BF51
:1053C00005B970BDB948046833E0FFF79DFC064697
:1053D000E06A50B3E06A401EE062E06A28BB94F8DD
:1053E000300000F0370040B114F8300F00F0C80072
:1053F000207001206070303C02E0002084F8310011
:1054000094F8300000F0080078B93434A078A84946
:1054100009780843A64908702078A649085C617895
:10542000084314F83419A34A505464693046FFF70E
:105430006FFC94F832003F28C7D100BFC1E740F2AB
:1054400023107047704710B590F8342001F10B031A
:105450009B5C90F83540A34301F10B04A354234611
:105460009B5C23B98B7A90F83640A3438B7210BDB6
:105470002DE9F04F05460F4690469946A87A8E4989
:105480000E5C05F10B00805D11F800B00BEBC6005F
:1054900000F0FF0A7E4850F82A4000202034E060E7
:1054A0002760207C20EA0800207484F81190207C7A
:1054B000203C00F0080068B994F836007C4909786F
:1054C00008437B4908707B48805D94F83510084399
:1054D0007849885529462046FFF7B5FF5046BDE874
:1054E000F08F10B56B4A1268D0616A4A126892F860
:1054F000343000F10B02D25C664B1B6893F83530F8
:105500001A43644B1B6893F8344000F10B031A559F
:10551000827A604B1B6893F836301A4382725D4A78
:10552000126892F83410634A525C5A4B1B6893F825
:1055300035309A435F4B5A541A46525C42B9554A29
:10554000126892F836305A4A12789A43584B1A70B9
:1055500010BD014600228A72002005E0002301F1FF
:105560000B021354421CD0B20828F7D3704705E051
:1055700011F8013B00F8013B531E9AB2002AF7D103
:1055800070472DE9F84F05460F4690469946DDE9EC
:105590000AAB00200090FFF7B7FB00904748046873
:1055A000002C65D0183454F8040C44490860009865
:1055B000FFF7AEFB44F8187CA576002020766076D5
:1055C000606144F814BC44F80CAC44F8108C0C989E
:1055D00024F8080C24F8069C0020E077E8102077D7
:1055E00005F00700E076217F01208840A077E17E6A
:1055F00001208840607700206060E060A060206249
:10560000A0626062E0622063AFF2DC306063183C4D
:10561000002606E0002104F1500040F82610701C1E
:10562000C6B2002EF6D02046FFF74FFB2046FFF70C
:105630003DFAFFF769FB0090154840F825401B48EC
:10564000006860610020A0611848006810B1174828
:1056500000688461154804603434A07814490978DE
:1056600008431349087020781249085C617827E0E4
:1056700036E000009C01002084010020830100200E
:10568000680100208E01002082010020810100209D
:10569000700C00209401002090010020780100206F
:1056A00080010020AC010020A4010020A001002006
:1056B0008501002086010020B41B0108980100200C
:1056C000084314F83419094A505409480078401C1A
:1056D000074908700098FFF71BFB0020BDE8F88F12
:1056E0000098FFF715FB4220F8E700008601002034
:1056F0008F0100202DE9F05F04460F4691461E46BB
:105700004FF0000B2078052804D0012030700020D5
:10571000BDE8F09F09F0800ABAF1000F04D029F02B
:1057200080094FF0010801E04FF0000800203070C0
:10573000FFF7EAFA8346B9F1000F2CD0B9F1010F57
:105740003BD0B9F1020F03D0B9F1030F46D111E0FC
:10575000208900EA0705BD4206D1B8F1010F05D145
:105760002089A843208101E0702030705846FFF75F
:10577000CFFA3AE0208900EA070535B1B8F1010F08
:1057800005D12089A843208101E07020307058465F
:10579000FFF7BEFA29E0208927EA0005BD4206D1BD
:1057A000B8F1010F05D120892843208101E0702044
:1057B00030705846FFF7ACFA17E0208927EA000559
:1057C00035B1B8F1010F05D120892843208101E0CE
:1057D000702030705846FFF79BFA06E05846FFF7F6
:1057E00097FA00256F20307000BF00BF28468FE772
:1057F0002DE9F04106460D460027FA48007820B111
:10580000102028700020BDE8F081FFF77DFA0746E0
:10581000F548046884B100684068F34908600520D1
:105820002070268100206060F0A0E0603846FFF71D
:105830006FFA0020287004E03846FFF769FA7220FA
:1058400028702046DFE730B501464A6808682AB963
:10585000CC68606028B10025456002E0106000B1AE
:1058600042608B6800255D6230BDF0B506460F468C
:10587000B4680020283460602780207A00F0DF00C0
:10588000207200206072207A283C88B93434A078D5
:10589000D74909780843D64908702078D549085C6B
:1058A0006178084314F83419D24A5054012500E0B5
:1058B00000253046FFF7C7FF2846F0BD2DE9F04729
:1058C0000446894615464FF0000AC648007820B1C4
:1058D0000F2028702046BDE8F0872078052803D0E7
:1058E000012028702046F6E7FFF70EFA824660682E
:1058F00008B1012700E00027B9F1000F03D0B9F18A
:10590000010F3CD119E08FB9B8A0E06000202070F1
:10591000B5480068606000202081B34804605046AC
:10592000FFF7F6F900202870002605E05046FFF743
:10593000EFF949202870264628E0D4F8048005E0D5
:1059400000214046FFF791FFD8F80080B8F1000F22
:10595000F6D1A6A0E06000202070A3480068606037
:1059600000202081A04804605046FFF7D1F9012FA4
:1059700001D1FFF722FC00202870002606E05046E7
:10598000FFF7C6F907202870264600BF00BF304643
:10599000A1E72DE9F04105460E461446002791483F
:1059A000007820B1112020700020BDE8F081FFF7C1
:1059B000ABF907462878052806D03846FFF7A8F93E
:1059C000012020700020F0E7E86830603068FFF7C1
:1059D000FBF980463846FFF79BF9002020704046CF
:1059E000E3E72DE9F04105460E46144600277D48C1
:1059F000007818B112202070BDE8F081FFF784F91B
:105A000007462878052805D03846FFF781F9012098
:105A10002070F1E7EE603846FFF77AF90020207039
:105A200000BFE9E7F0B51446059E734F3F6897F84D
:105A3000307047F02007DFF8C0C1DCF800C08CF8F8
:105A400030700027DFF8B0C1DCF800C08CF831708E
:105A5000694F3F68FE62684F3F6879620C828B74C1
:105A6000654F3F688F6047680F6000274F60C860D0
:105A7000456805B1696041605F4F3F6897F8342021
:105A80005C4FBF5CDFF870C1DCF800C09CF835C02B
:105A900027EA0C07DFF85CC10CF802706746BF5CB0
:105AA0005FB9554F3F6897F836C0514F3F7827EAA6
:105AB0000C07DFF83CC18CF80070F0BD2DE9F04F09
:105AC00089B005460F4691469A46129E00200290E4
:105AD0004448007828B102203070002009B0BDE8A9
